:0200000090C0AE
:10000200FECFFDCFFCCFFBCFFACFF9CFF8CFF7CFA2
:10001200F6CFF5CFF4CFF3CF1027E80364000A0040
:1000220001000010000110000100312D57697265B6
:10003200204D6963726F4C616E204E657420646559
:100042006D6F0A0D002575206465766963652873F6
:100052002920666F756E640A0D00445331393930B8
:1000620020202325752073657269616C206E756D81
:100072006265723A004453323430352020232575AC
:100082002073657269616C206E756D6265723A00EB
:10009200445331383232202023257520736572692A
:1000A200616C206E756D6265723A0044533234336E
:1000B2003020202325752073657269616C206E756E
:1000C2006D6265723A004453313853323020232531
:1000D200752073657269616C206E756D6265723A26
:1000E2000044533234333120202325752073657246
:1000F20069616C206E756D6265723A0044533234E8
:10010200333320202325752073657269616C206E5C
:10011200756D6265723A0020253032580000000089
:10012200F894EE27ECBBE5BFF8E1F1BDE1BD8DE04F
:10013200A2E0BB27ED938A95E9F780E092E0A0E682
:10014200ED930197E9F7E0E2F1E0C8953196802D51
:10015200C8953196902D0097B9F0C8953196A02D8B
:10016200C8953196B02DC8953196102CC895319608
:100172006E2F7F2FF02DE12DC89531960D920197AC
:10018200D9F7E62FF72FE1CFEFE5EDBFE2E0EEBFC3
:10019200C0EED0E000C031E0E8E0EAB9E7E1E9B959
:1001A200ECE2F0E0FA93EA9380E0F4D1E0EFEA9334
:1001B200E0EEF0E0FA93EA9395D22E2FE7E4F0E036
:1001C200FA93EA93E22FE9D184E0ECD100E002173E
:1001D20008F093C0EAD1BF93AF93ECD1AF91BF9136
:1001E200EDD1A13039F4ECE5F0E0ECD13F5FD5D1AF
:1001F20084E05FC0DAD1BF93AF93DCD1AF91BF91FE
:10020200DDD1A53039F4E7E7F0E0DCD13F5FC5D1BD
:1002120084E04FC0CAD1BF93AF93CCD1AF91BF910D
:10022200CDD1A23239F4E2E9F0E0CCD13F5FB5D1D1
:1002320084E03FC0BAD1BF93AF93BCD1AF91BF911D
:10024200BDD1A43139F4EDEAF0E0BCD13F5FA5D1D4
:1002520084E02FC0AAD1BF93AF93ACD1AF91BF912D
:10026200ADD1A03139F4E8ECF0E0ACD13F5F95D1EB
:1002720084E01FC09AD1BF93AF939CD1AF91BF913D
:100282009DD1AD3239F4E3EEF0E09CD13F5F85D1F0
:1002920084E00FC08AD1BF93AF938CD1AF91BF914D
:1002A2008DD1A33241F4EEEFF0E08CD13F5F75D1F6
:1002B20084E051D1269611E0E6E0E117B0F0E9E1E1
:1002C200F1E0FA93EA9371D1BF93AF9373D1AF91F7
:1002D200BF91AE0FBF1FE12FF0E0AE0FBF1FEC9139
:1002E2005CD184E05FD11F5FE7CFE4E4F0E0FA93F2
:1002F200EA9380E04FD10F5F6ACFFFCF5F9BFECFC3
:10030200ECB108955D9BFECFE881ECB9219608958A
:100312005DD1309741F05AD13196ED93FC933197EC
:10032200AA81A08303C0EA81EA93ECDF23960895B1
:10033200269770D200E0E889F9893196E88BF98B2B
:1003420049D13E2FE03009F403C1E02FE03031F40F
:10035200353211F401E001C041D1F9C0E130A9F414
:10036200353219F43BD100E0F2C002E050E010E077
:100372003D3211F411E0EBC03B3211F45BE2E7C015
:10038200303211F450E2E3C002C0E23039F440E00E
:1003920003E0303311F41068DAC003C0E33009F02F
:1003A200D6C0303310F03A3308F009C0242F440F7E
:1003B200440F420F440FE32FE0534E0FC8C0E32F08
:1003C200E33621F411D1EC9116D1C0C0E33729F400
:1003D2000BD117D125D10E2F07C0E03749F404D134
:1003E20010D128D10E2F186012601F7720E030C084
:1003F200E43611F0E93611F4146002C0E53731F445
:10040200EAE1F0E0EE83FF8305E00CC0E83511F489
:10041200186003C0E83709F099C0E4E2F0E0EE8327
:10042200FF8304E012FF12C0DFD0F1D0AA85BB85A2
:10043200109734F4EA85FB85C9D1EA87FB875DE230
:10044200503011F00F5F01C01B7F02C0CDD0DFD052
:1004520010FD10C0041770F417FF08C012FF04C08B
:100462001B7F352F015001C030E301C030E2B6D00E
:100472004150F0CF202F11FF18C02030A9F013FFF8
:1004820007C0EE81FF813196EE83FF83A3D005C0C2
:10049200AE81BF81ED91AE83BF83EA93BCD0403081
:1004A20009F041502150E9CF49C030E3EE81FF818C
:1004B2003296EE83FF833297A1D1E887F987AA8526
:1004C200BB85AE17BF0720F03F5FAE1BBF0BC9F75E
:1004D200AA87BB87E9E3E31728F413FF02C0395F59
:1004E20001C0395D14FD1DC0E0E3E31730F0A885BB
:1004F200B985A130E0E0BE0711F410610AC04217CD
:1005020010F010FF01C011C030E217FF0AC030E343
:10051200106112FF06C01B7F5A937DD0403009F054
:1005220041505CD0403009F041502150A885B98536
:10053200E1E0F0E0EA17FB0708F4B7CF10FF06C0CE
:10054200403021F04150E0E256D0FACF00E0F3CE45
:1005520068D162960895FF92F82E22975FD1AC2F50
:10056200BD2F30D10A2F1B2FE0E0EA83EB83AC2FA3
:10057200BD2F149627D13ED1FA93EA931A930A9388
:10058200EC2FFD2F3696FA93EA93D2DE4ED12496C3
:10059200FF900895E0DF22960895FF2766277727C8
:1005A20034D10895D8DF26960895E02FA0EEB0E06A
:1005B200F0E00895A9E0B0E00DD10895AE0FBF1F9D
:1005C200AC910895FA93EA93E32F0895A881B98133
:1005D20011D108953197C895E02D08953A93ED858C
:1005E200FE85FA93EA9394CEAE85BF851497AE87C3
:1005F200BF8714960895EA93ED85FE85FA93EA93F0
:1006020087CEF8D0EE83FF83FA93EA930895F2D06F
:10061200EA87FB870895ED85FE85FA93EA9378CE03
:10062200A991B991EE27FF276D91662311F03196BA
:10063200FBCF0895AA27BB27E991F991C89500201D
:1006420019F011963196FACFEA2FFB2F0895EE2773
:10065200DE98D69A8AEB91E00197F1F7D69881E17C
:100662008A95F1F7CE9B08958DE58A95F1F7CE9B99
:10067200E39587E691E00197F1F70895D69A82E033
:100682008A95F1F7D6988EE08A95F1F78894CE99FB
:100692000894E79582E68A95F1F70895E894D69A48
:1006A20082E08A95F1F770FDD69880E18A95F1F79C
:1006B200CE9903C070FF03C0089570FF08958CE5C2
:1006C2008A95F1F7D69886E08A95F1F768940895AD
:1006D20068E07991EE27E2DF26F477956A95D9F7FB
:1006E200E39508954F935F9311244427A881B9811C
:1006F200012C1124ACDFEE23F9F0EA81EA93E8DF62
:1007020051E0501598F4BADFE7FD08C0B7DFE7FD06
:1007120006C03FD0892319F4152E01C0AFDF39D0AE
:10072200892370E009F071E0B9DF1EC0A7DFE7FF9F
:100732000BC0A4DFE7FF05C0E42F5F914F91239622
:100742000895689437D0EFCF99DFE7FF01C003C067
:10075200501531F0152EE8942DD077279FDF04C075
:10076200689428D071E09ADF5395513454F286DFB1
:10077200EE1FEE1FE1701896EC9318974395112027
:10078200D9F259E0EC911996EC9318975A95D1F752
:10079200AFCFE52FEA956E2FE695E695E695FF2712
:1007A200EA0FFB1F808191E0677019F0990F6A953B
:1007B200FCCF0895EEDF1EF09095892301C0892BAE
:1007C200808308950024AF0DB01D0895E095F09543
:1007D200319608950A2E1B2E81E1AA27BB1B05C064
:1007E20010F4A00DB11DB695A795F795E7958A95DA
:1007F200B9F70895ED91FC9111970895C895319636
:10080200102CC895F02DE12D08957A936A93FA93EE
:10081200EA9308955A934A933A932A931A930A931E
:1008220008955D814C813B812A8119810881089557
:00000001FF
