:020000040000fa
:080000000002040000000000f2
:020000040000fa
:100400000f87200080bf200000018800000000004e
:10041000050007000c000700f602020000000000c3
:100420000040da000000fe004440a9000000200067
:100430000000e0000300320000002000a00188005e
:100440004440a80000000600e063200001002000f6
:100450001600370062004000e080480091018800eb
:100460009001ba0062004000e080480091018800dd
:100470009002ba0062004000e08048000002eb00f9
:100480006028e10005003a008301e900070033001d
:10049000038009000059eb00040037006128e100e7
:1004a000010032000082eb00050007009101880086
:1004b0001001ba000200e000e6ff3a00000005006b
:1004c000910188008002780062004000e0804800ce
:1004d0003559ba008301e900080032002559ba00f5
:1004e0008301e900050032000400e000f4ff32005f
:1004f00015d9ba008301e900f1ff3a0000000600b7
:100500001108980000000600800a9000f003900097
:10051000058253005080ca00c0027800450188005f
:10052000a00290001301c0007c00c8000000cb00b6
:100530000600cc00d00090000130e10004003c0037
:10054000e00090000130e1000100340086007800f6
:1005500011089800b00290001301c000010353007d
:10056000c00290001241c4000000cb005000cc003b
:100570001501800005207800000006000000fa0048
:100580000000eb0020168800c002a900c022a900cc
:10059000c042a900c062a900c082a9000000eb000f
:1005a00060168800c802a800c822a800c842a80097
:1005b000c862a900c882a900c8a2a800c8c2a90030
:1005c000c8e2a900c902a900c922a900c942a9001c
:1005d000c962a900c982a900c9a2a900c9c2a9000b
:1005e000c9e2a9000080fa00000006000000fa003d
:1005f00020002000303a880044c7bf00f043b2001a
:1006000044e7b700417420009140780000ceb30069
:1006100000c0600044e7b700d8ff070006000700ed
:100620006d0007003600070085a0a90095a0a8006e
:10063000c1e5a800ffff37000200fa00cb22a800a6
:100640000040eb00004f780002003700000000007f
:100650001e4fe80090c0b3009e4f1000fbff360015
:10066000cb02a900cb22a9000080fa0000000600fe
:100670000000fa00004080000000e900004088000f
:10068000920007000080fa00000006003600f80023
:10069000809fbe00829fbe00849fbe00869fbe00da
:1006a0003400f80000c0b300a00188000000fa0088
:1006b00085a0a900004080000000e0000200320098
:1006c000ebff070006003700cda2a80004010700d9
:1006d000d8000700360107007c000700cda2a90062
:1006e0000080fa003400f9004f03be004f02be0044
:1006f0004f01be004f00be003600f900004006006a
:100700000000fa000000eb000019880021c3bf00c0
:100710003040b30021e3b7002143a90020c3bf004c
:100720007f40600001cab3000140700020e3b700c1
:100730002063a8002043a8000000eb0010198800e7
:1007400023c3bf003040b30023e3b70021322000b1
:100750009140780030ccb30000c060000024a000bd
:1007600022e3b7002343a8005132200091407800d3
:1007700000ceb30000c060000034a00025e3b70045
:1007800040c0b30024e3b70028e3a9006132200091
:100790009140780090cfb30000c0600026e3b7001e
:1007a0002603a8000080eb00601988002c43a900f4
:1007b0002c63a9002c83a9002ca3a9000000eb0046
:1007c000801988003043a8003083a80021e3a800e6
:1007d0000080fa00000006000000fa000000eb00b4
:1007e000002e88000000eb00102e8800301f200033
:1007f000202e8800312e800000002800008060003c
:10080000311f200001007000302e8800c905a800ab
:10081000c885a8000000eb00502e8800b15c2000c5
:100820009140780000cfb30000c06000cbe5b70076
:10083000ca45a800d525a8000000eb00b02e88000e
:100840008d20a9009d20a9000080fa00000006006c
:100850003400f800881f780008c0b300a8018800a1
:100860004f0478000000fa008d20a9000080fa00f3
:100870003400f900004006003400f800881f7800ba
:1008800008c0b300a80188004f0478000000fa00f7
:10089000ffff37003400f800881f780008c0b3005d
:1008a000a80188004f0478000000fa00ffff37001d
:1008b0003400f800881f780008c0b300a801880041
:1008c0004f0478000000fa00ffff3700809fbe0051
:1008d000829fbe00849fbe00869fbe00889fbe0090
:1008e0004018800001002800010068004600de007a
:1008f000820c20000200e100370033006e08ae00d9
:100900006e28af0024003700b040800031408000e6
:100910000100e10001003300020037003040800098
:1009200001003700b04080006040880080812000d6
:100930001001be0023018800120188007b00c8005e
:1009400011018000200180007140880090408800e3
:10095000214080000100e100010033000200370067
:100960002040800001003700904080001040880047
:100970006e08a8006e28a8000000eb00b0408800b8
:100980001201c3000001eb008001eb008481200014
:10099000028abe00210037004018800001002800b4
:1009a000010068004600de00b640800000047800c8
:1009b000808120001001be00020144000380b000cd
:1009c0000603e800b640880084812000028abe0049
:1009d0006e08a900110037006e08af000f00370045
:1009e0004018800001002800010068004600de0079
:1009f00000047800b6408000808120001001be0015
:100a0000020144000380b0000603e800b6408800fd
:100a100084812000028abe006e28a9004f04be0017
:100a20004f03be004f02be004f01be004f00be008c
:100a300000000600809fbe00829fbe00849fbe0013
:100a4000869fbe00889fbe007040800011408000dd
:100a500063408000110009004388d800804088006e
:100a6000000278001101f00023018000a3408800fb
:100a70004018800001002800010068004100de00ed
:100a8000e0408800e04080000000ca004700c80045
:100a90001001800021018000110009004388d80066
:100aa000f0408800f4408000454380001301c000fe
:100ab00020018000000178004211dd004100dd00ce
:100ac00002004000104188004f04be004f03be00ea
:100ad0004f02be004f01be004f00be0000000600e6
:100ae000809fbe00829fbe00849fbe00869fbe0086
:100af000889fbe008a9fbe00001880000100280069
:100b0000010068004100de00204388006e48af000d
:100b1000304188006e48a900304180000104270060
:100b20000100e10006003d0020032000314180006b
:100b30000100400030418800204188000200370059
:100b400000042700204188000053270060418800ee
:100b50000064200070418800b006200080418800b9
:100b6000f0ff27009041880000002000a04188008d
:100b700020418000b041880020438000c0418800af
:100b8000808220008402020000000000d141800029
:100b9000414388004f05be004f04be004f03be0016
:100ba0004f02be004f01be004f00be000000060015
:100bb000809fbe00829fbe00849fbe00869fbe00b5
:100bc000889fbe008a9fbe001018800000418800e8
:100bd0008000eb0000f0a600010037000141880012
:100be000805720005042880080b521006042880074
:100bf0002003200070428800f0ff27008042880018
:100c0000003220009042880010418000a0428800fd
:100c1000004180004100dd00b04288006084200077
:100c20008402020000000000c04280000001780041
:100c300083022000110009000381d800604388006e
:100c4000213620000008e1000300340060438000ea
:100c5000b02e88000200370021362000b12e880017
:100c60004f05be004f04be004f03be004f02be0042
:0c0c70004f01be004f00be000000060057
:020000040000fa
:0200000401f009
:04000000ffff0000fe
:020000040000fa
:0200000401f009
:04000800ffff0000f6
:020000040000fa
:0200000401f009
:04000c00f9ff0000f8
:020000040000fa
:0200000401f009
:040010005fff00008e
:020000040000fa
:0200000401f009
:040014007fff00006a
:020000040000fa
:0200000401f009
:04001800efff0000f6
:020000040000fa
:100008006a0600006a0600004a040000580400005e
:100018003c0400006a0600006a0600006a06000048
:100028006a0600006a0600006a0600006a06000008
:100038006a0600006a0600006a0600006a060000f8
:100048006a0600006a0600006a0600006a060000e8
:100058006a060000460300006a0600006a060000ff
:100068006a0600006a0600006a0600006a060000c8
:100078006a0600006a0600006a0600006a060000b8
:100088006a0600006a0600006a0600006a060000a8
:100098006a0600006a0600006a0600006a06000098
:1000a8006a0600006a0600006a0600006a06000088
:1000b8006a0600006a0600006a0600006a06000078
:1000c8006a0600006a0600006a0600006a06000068
:1000d8006a0600006a0600006a0600006a06000058
:1000e8006a0600006a0600006a0600006a06000048
:1000f8006a0600006a0600006a0600006a06000038
:100108006a0600006a0600006a0600006a06000027
:100118006a0600006a0600006a0600006a06000017
:100128006a0600006a0600006a0600006a06000007
:100138006a0600006a0600006a0600006a060000f7
:100148006a060000280400006a0600006a0600002b
:100158006a0600006a0600006a0600006a060000d7
:100168006a0600006a0600006a0600006a060000c7
:100178006a0600006a0600006a0600006a060000b7
:100188006a0600006a0600006a0600006a060000a7
:100198006a0600006a0600006a0600006a06000097
:1001a8006a0600006a0600006a0600006a06000087
:1001b8006a0600006a0600006a0600006a06000077
:1001c8006a0600006a0600006a0600006a06000067
:1001d8006a0600006a0600006a0600006a06000057
:1001e8006a0600006a0600006a0600006a06000047
:0801f8006a0600006a0600001f
:020000040000fa
:100208006a0600006a0600004a040000580400005c
:100218003c0400006a0600006a0600006a06000046
:100228006a0600006a0600006a0600006a06000006
:100238006a0600006a0600006a0600006a060000f6
:100248006a0600006a0600006a0600006a060000e6
:100258006a060000460300006a0600006a060000fd
:100268006a0600006a0600006a0600006a060000c6
:100278006a0600006a0600006a0600006a060000b6
:100288006a0600006a0600006a0600006a060000a6
:100298006a0600006a0600006a0600006a06000096
:1002a8006a0600006a0600006a0600006a06000086
:1002b8006a0600006a0600006a0600006a06000076
:1002c8006a0600006a0600006a0600006a06000066
:1002d8006a0600006a0600006a0600006a06000056
:1002e8006a0600006a0600006a0600006a06000046
:1002f8006a0600006a0600006a0600006a06000036
:100308006a0600006a0600006a0600006a06000025
:100318006a0600006a0600006a0600006a06000015
:100328006a0600006a0600006a0600006a06000005
:100338006a0600006a0600006a0600006a060000f5
:100348006a060000280400006a0600006a06000029
:100358006a0600006a0600006a0600006a060000d5
:100368006a0600006a0600006a0600006a060000c5
:100378006a0600006a0600006a0600006a060000b5
:100388006a0600006a0600006a0600006a060000a5
:100398006a0600006a0600006a0600006a06000095
:1003a8006a0600006a0600006a0600006a06000085
:1003b8006a0600006a0600006a0600006a06000075
:1003c8006a0600006a0600006a0600006a06000065
:1003d8006a0600006a0600006a0600006a06000055
:1003e8006a0600006a0600006a0600006a06000045
:0803f8006a0600006a0600001d
:020000040000fa
:100c7c00000800000e0000000200000064009e004e
:100c8c00002400002c01000000000000c80000003f
:100c9c000e080000040000000000000064080000c2
:100cac000c0000000200000000000000000000002a
:100cbc0000000000000700001208000052000000b5
:080ccc00000000000000000020
:020000040000fa
:040cd4000000fe001e
:00000001FF
