:020000040000FA
:020000000528D1
:06000A008312073099008B
:100010008316910195013F308500073087008312D8
:1000200005181028051C1228071687118712A10130
:10003000851A2F280519242807124030A1006320B3
:100040005B2063200716102807124030A1006320B0
:100050005B206320A1016320632007161028051987
:10006000392807124130A10063205B206320071666
:100070001028071810288718502807194628071233
:100080002030A100632063200716102807122030BB
:10009000A10063206320A1016320632007161028BC
:1000A00007122030A100632063202030A1006320CC
:1000B000632007161028A101071821158718A1141D
:1000C00007192114080003100830A000A11B871590
:0E00D000871687128711A10DA00B6628080065
:02400E00B43FBD
:00000001FF
