:0B46E300457863657074696F6E2000FD
:10467B00E4F52EF52DF52CF52BF532F531F530F55E
:10468B002F75343D753330124640E4FFFE12469EC3
:03469B000243C90E
:1043C900E4F509F50A7409250AF582E43400F58350
:1043D9007420F0050AE50A70020509640A450970A6
:1043E900E4750B00750C091246EE8F081246C1EFF1
:1043F900602C7410650C70047400650B7003024422
:10440900AE850C82850B83E508F07B017A0079097A
:104419001245C2050CE50C7002050B0244AEE533EA
:10442900B4300D1244B48F2E8E2D8D2C8C2B800B15
:104439001244B48F328E318D308C2F750B00750C70
:1044490009E4F509F50A7409250AF582E43400F549
:10445900837420F0050AE50A70020509640A450912
:1044690070E4850834E534B44306FF1241798005C8
:10447900AF33124179E4F509F50A7400250AF5828A
:10448900E43400F5837420F0050AE50A7002050991
:10449900640A450970E4750B00750C09E534643D3F
:0B44A90060038534338508350243F0C2
:10417900EF24D6700302421324FD605124FE70031C
:1041890002425224EC70030242A424186003024242
:10419900BFE534643D6012C3E535648094B04027BF
:1041A900D3E535648094B9501EE52E2532F52EE508
:1041B9002D3531F52DE52C3530F52CE52B352F1224
:1041C90045FF8F0D0242C2750D010242C2E53464FA
:1041D9003D6012C3E535648094B04028D3E5356469
:1041E9008094B9501FC3E52E9532F52EE52D9531F2
:1041F900F52DE52C9530F52CE52B952F1245FF8FE4
:104209000D0242C2750D010242C2E534643D6012DD
:10421900C3E535648094B0402BD3E535648094B907
:104229005022AF2EAE2DAD2CAC2BAB32AA31A9301A
:10423900A82F1240468F2E8E2D8D2C8C2B124608BE
:104249008F0D8075750D018070E534643D6012C372
:10425900E535648094B0403ED3E535648094B95027
:1042690035AF32AE31AD30AC2FEC4D4E4F6022AF91
:104279002EAE2DAD2CAC2BAB32AA31A930A82F1202
:1042890045788F2E8E2D8D2C8C2B1246088F0D8004
:1042990028750D028023750D01801EE4F52EF52D7C
:1042A900F52CF52BF532F531F530F52F75343075E0
:1042B9003330F50D8003750D01AF0DEF3395E0FE39
:0342C90002469E0C
:0945FF00F52BAF2EAE2DAD2CFC06
:104608008F118E108D0F8C0E7F817E697D677CFFE8
:10461800AB11AA10A90FA80EC312409540157F7FB1
:104628007E967D987C00A80ED312409550057E009A
:084638007F00227E007F0222B8
:10469E00EE701CEF14601B14601224027011AF2E0A
:1046AE00AE2DAD2CAC2B1242CC0245C20245BC1233
:0346BE0045BC22D6
:0644B4007B017A0079098A
:0644BA008B0D8A0E890F34
:1044C000E4F513F512F511F510AB0DAA0EA90F12B4
:1044D0004000FF6420604AEF3395E0FEEF24D0FFF8
:1044E000EE34FFFE3395E08F178E16F515F514E4C4
:1044F0007F0AFEFDFCAB13AA12A911A810124046B8
:10450000EF2517F513EE3516F512ED3515F511EC0F
:104510003514F5107401250FF50FE4350EF50E80F6
:09452000A8AF13AE12AD11AC10EE
:01452900226F
:1042CC008F118E108D0F8C0E751200751309E475FD
:1042DC00170AF516F515F514EC4D4E4F700C8513A9
:1042EC00828512837430F00243C2E4FFFEFDFCAB06
:1042FC0011AA10A90FA80EC3124095502C900000C3
:10430C00742DF0E47F02FEFDFCA80E124046A804BA
:10431C00A905AA06C3E5119FF511E5109AF510E55C
:10432C000F99F50FE50E98F50EE4F519F51AAB1784
:10433C00AA16A915A814AF11AE10AD0FAC0E1245EC
:10434C0078AF038F18AB17AA16A915A814AF11AE26
:10435C0010AD0FAC0E124578E5187011EC4D4E4FA8
:10436C00700B8513828512837420F0800BE5182462
:10437C0030851382851283F0AF11AE10AD0FAC0EE9
:10438C00E47B0AFAF9F81245788F118E108D0F8C98
:10439C000E740165137004740065126008E5131542
:1043AC001370021512051AE51A70020519640945F5
:0C43BC0019600302433A7B017A0079008B
:0143C80022D2
:1046C100C3EF648094B0400BD3EF648094B950037E
:0646D1007F01227F0022A0
:0646EE0012452AEF60FAFC
:0146F40022A3
:0645BC007BFF7A4679E363
:0645C2008B0E8A0F891028
:1045C800E4F511F51212465AD3E5129409E511647F
:1045D8008094805021AB0EAA0FA9108512828511F4
:1045E80083124019FF642060031246550512E51234
:0645F80070D6051180D20F
:0145FE00229A
:10452A00C083C082781B79EF7A0489A000E5907B6A
:10453A0004543F13FC4007E67601601180027600BE
:10454A0008ECDBEFE923F9DAE1E4FF80099045683A
:10455A00E8C3941B93FF75A0FFD082D0832237381B
:0E456A00392F3435362A3132332D43303D2B74
:104640007430124665740C124665748F1246657498
:104650000712466522EF12466D22740112466574F8
:104660008F1246652275A0807800F2800775A080C1
:0B4670007801EFF27902E320E7FA2264
:030000000246D7DE
:0C46D700787FE4F6D8FD75813502467B43
:10400000BB010689828A83E0225002E722BBFE02BE
:09401000E32289828A83E49322F1
:10401900BB010CE58229F582E5833AF583E022505C
:1040290006E92582F8E622BBFE06E92582F8E222A6
:0D403900E58229F582E5833AF583E49322C0
:10404600E88FF0A4CC8BF0A42CFCE98EF0A42CFC19
:104056008AF0EDA42CFCEA8EF0A4CDA8F08BF0A497
:104066002DCC3825F0FDE98FF0A42CCD35F0FCEBF6
:104076008EF0A4FEA9F0EB8FF0A4CFC5F02ECD39BB
:0F408600FEE43CFCEAA42DCE35F0FDE43CFC2228
:10457800C2D5E830E70FB2D5E4C39BFBE49AFAE46E
:1045880099F9E498F8EC30E717B2D51245AE124025
:10459800E7E4C39BFBE49AFAE499F9E498F880030A
:1045A8001240E730D50DE4C39FFFE49EFEE49DFD75
:0445B800E49CFC2261
:10409500EB9FF5F0EA9E42F0E99D42F0EC6480C8A2
:0640A50064809845F02242
:1040AB0075F008758200EF2FFFEE33FECD33CDCCCC
:1040BB0033CCC58233C5829BED9AEC99E58298404F
:1040CB000CF582EE9BFEED9AFDEC99FC0FD5F0D62C
:1040DB00E4CEFBE4CDFAE4CCF9A88222B800C1B956
:1040EB000059BA002DEC8BF084CFCECDFCE5F0CB94
:1040FB00F97818EF2FFFEE33FEED33FDEC33FCEBCD
:10410B0033FB10D703994004EB99FB0FD8E5E4F987
:10411B00FA227818EF2FFFEE33FEED33FDEC33FC74
:10412B00C933C910D7059BE99A4007EC9BFCE99A68
:10413B00F90FD8E0E4C9FAE4CCFB2275F010EF2FAD
:10414B00FFEE33FEED33FDCC33CCC833C810D707AD
:10415B009BEC9AE899400AED9BFDEC9AFCE899F8E8
:0E416B000FD5F0DAE4CDFBE4CCFAE4C8F9227B
:00000001FF
