:020000040000FA
:04000000C7EF04F052
:04000800F6EF04F01B
:040018003BEF05F0C5
:02002A000000D4
:04002C00A651A22710
:10003000A551D8B0A53DA127A451D8B0A43DA02773
:100040001200A651A25FA551D8A0A53DA15FA45161
:10005000D8A0A43DA05F1200A1C0AEF0A151A5039D
:10006000F4CFA2F0F3CFA3F0A051A403F4CFA0F0FB
:10007000F3CFA1F0A503F350A227F450A123E86A1F
:10008000A023AE51A403F350A227F450A123E86AA1
:10009000A023000CA86BA96BE86BA46758EF00F0D5
:1000A000A5C0A4F007EC01F0A8C0A9F0A86B000C53
:1000B000A06367EF00F0A1C0A0F0A2C0A1F061ECC6
:1000C00001F0A1C0A2F0A0C0A1F0A06B000CA2C0E2
:1000D000A3F0A1C0A2F0A0C0A1F0A06BA0C0ADF0A1
:1000E000A1C0AEF0A2C0AFF0A3C0B0F0020EB56FD9
:1000F000010EB16FA4BF99EF00F0BFEC01F0B16F3A
:10010000A503A451F3CFA5F0F4CFA4F0B103F350AD
:10011000A427B151A303F3CFB0F0F4CFAFF0A10304
:10012000F3CFAEF0F4CFADF0A203F350AF27F4500D
:10013000AE27D890F76AA435F736B50FF66E030EE2
:10014000F7220A00ADC0A0F0AEC0A1F02DEC01F086
:10015000A0A1B3EF00F0A169AEC0A8F0A451A827F8
:10016000D8B0CAEF00F0A151A503F350AF5DF45031
:10017000A859D8B0CAEF00F0A107A451A827D8B059
:10018000CAEF00F0A151A503F350AF5DF450A85998
:10019000D8A0A107A1C0B2F0A151A503F350AF5F51
:1001A000F450AE5BA151A403F350AE5FF450AD5BCD
:1001B000ADAFE0EF00F0B207A551AF27A451AE23D9
:1001C000B54FEDEF00F0B2C0B3F0AEC0ADF0AFC0D0
:1001D000AEF0B0C0AFF0A2EF00F0AEC0A8F0AFC07C
:1001E000A9F0010EB16501EF01F0B141A46FBFECC0
:1001F00001F0AF03F4CFA9F0AE03F350A927F4CF79
:10020000A8F0A06BB2C0A2F0B3C0A1F0000CA0C0D7
:10021000ADF0A1C0AEF0A2C0AFF020EC01F0A0C0E4
:10022000ADF0A1C0AEF0AFC0A1F0A8C0A0F020EC2E
:1002300001F0A1C0A2F0AEC0A1F0ADC0A0F0000CD2
:10024000010EA465D8EF01F0D890F76AA435F7360F
:10025000B50FF66E030EF7220A00A0C0A9F0A1C0E8
:10026000A8F0F550A903F4CFA0F0F3CFA1F0090056
:10027000F550A803F4CFA2F0A903F350A227F4503D
:10028000A123E86AA0230A00F550A803F350A2278F
:10029000F450A123E86AA023A451A103F3CFA3F053
:1002A000F4CFA2F0A003F350A227A351A85FA2515C
:1002B000A95BA9AF000CA107E86AA05BA451A8271D
:1002C000000CA4676CEF01F0A5C0A4F020EC01F0D5
:1002D000A8C0A9F0A86B000CA451A05DD8A0D1EFD4
:1002E00001F0D8A479EF01F0A551A15DD8A0D1EF1C
:1002F00001F0A0C0ADF0A1C0AEF0A1C0B4F0A0C0AC
:10030000A1F0A06BA4C0A6F0A5C0A7F0A4BFA6EF63
:1003100001F0A451E847B70FF66E030EF76AF72213
:100320000800F550A703F3CFA5F0F4CFA4F0A6037F
:10033000F350A427F550AE03F3CFB4F0F4CFA1F0FF
:10034000AD03F350A127A06BF450A02324EC01F0DF
:10035000A151A503F350B45DF450A859D8A0A1074A
:10036000A151A703F350AE5FF450AD5BA151A603BA
:10037000F350AD5FADC0A8F0AEC0A9F0000C100EF8
:10038000A461CBEF01F0A4B7100CA4B5200CA4B36A
:10039000400CA4B1800CA4BD020CA4BB040CA4B9F5
:1003A000080CA1C0A9F0A16BA0C0A8F0A06B000C24
:1003B000A86B000C00000100018056550140343349
:1003C000AB2A93240120721C9A1946175615B213B2
:1003D0004A1212110110100F390E7A0DCD0C310C8A
:1003E000A30B220BAB0A3E0AD9097C092509D408C4
:1003F000890843080108C207880751071D07EC0652
:10040000BD06910667063F061906F505D205B1053A
:100410009105730556053A051F050605ED04D5043B
:10042000BE04A80493047E046A04570445043304FC
:10043000220411040104F103E103D303C403B6034E
:10044000A9039C038F03820376036A035F035403AB
:1004500049033E0334032A03200316030D03040358
:10046000FB02F202E902E102D902D102C902C10291
:10047000BA02B202AB02A4029D0296029002890265
:1004800083027D02770271026B0265025F025A02EB
:1004900054024F024A0244023F023A02350231023C
:1004A0002C02270223021E021A02150211020D025B
:1004B000090205020102FD01F901F501F101ED0159
:1004C000EA01E601E201DF01DB01D801D501D1013A
:1004D000CE01CB01C801C401C101BE01BB01B801FD
:1004E000B501B301B001AD01AA01A701A501A201A7
:1004F0009F019D019A0198019501930190018E0140
:100500008B01890187018401820180017E017B01C9
:10051000790177017501730171016F016D016B0143
:10052000690167016501630161015F015D015B01B3
:100530005901580156015401520151014F014D0119
:100540004B014A0148014701450143014201400175
:100550003F013D013C013A013901370136013401C7
:100560003301310130012F012D012C012A01290114
:1005700028012601250124012201210120011F015A
:100580001D011C011B011A0119011701160115019A
:1005900014011301120110010F010E010D010C01D4
:1005A0000B010A0109010801070106010501040107
:0605B0000301020101013C
:0A05B600E06A636B646B656B666BB3
:1005C000676B686B696B6A6B6B6B6C6B6D6B6E6B7F
:1005D0006F6B706B716B726B736B746B756B766B2F
:1005E000776B606B616B626BA06BA16BA26BA46B92
:1005F000A56BA66B010ECD6EEC0ECF6E9B0ECE6E74
:10060000600E756F500E766F100E776F040E7A6F56
:10061000789178897887799179939E90F28CF28E8F
:100620009D801200000E636304D0646302D0788161
:10063000120020EC03F0A4EC03F055EC03F01200E0
:10064000A46B75C0A5F063C0A0F064C0A1F02CEC51
:1006500000F0A1C06CF0A2C06DF0A3C06EF012005B
:10066000A46B76C0A5F066C0A0F067C0A1F02CEC2A
:1006700000F0A1C06FF0A2C070F0A3C071F0120032
:10068000DEEC03F079B5120079836BC0A5F06AC087
:10069000A4F077C0A1F0A06B2CEC00F0A1C072F028
:1006A000A2C073F0A3C074F012006CC0A0F06DC0C3
:1006B000A1F06EC0A2F06FC0A4F070C0A5F071C030
:1006C000A6F09D9013EC04F078AB01D004D0789F95
:1006D00078B7788F03D0789F78B5788F72C0A4F000
:1006E00073C0A5F074C0A6F078C07BF0C00E7B1775
:1006F0007B510008D8B401D003D016EC00F010D024
:100700007B51C008D8B401D003D016EC00F008D05B
:100710002AEC04F078AB01D003D0789F78BD788FB5
:10072000A46B100EA56F4AEC00F0A2C062F0A1C04D
:1007300061F0A0C060F063C068F064C069F07899AF
:1007400078B578899D80120065C0A4F066C0A5F0D8
:1007500067C0A6F063C0A1F064C0A2F013EC04F07F
:1007600078AB03D0789778B578877893000EA0633C
:100770000CD0A1630AD0A26308D07883A0C065F032
:10078000A1C066F0A2C067F01200A0C065F0A1C0D1
:1007900066F0A2C067F0000E65630AD0666301D000
:1007A00012000F0E6665120003D0A00E67651200DE
:1007B000656B0F0E666FA00E676F1200A06B63C0B3
:1007C000A1F064C0A2F0A46B68C0A5F069C0A6F057
:1007D00078517B6F140E7B177B510008D8B401D081
:1007E00006D02AEC04F0789D78B9788D10D07B5132
:1007F0001408D8B401D006D02AEC04F0789D78B95A
:10080000788D05D016EC00F0789D78B5788DA1C074
:100810006AF0A2C06BF07995000E6A6312006B63F8
:1008200012007985120078C07BF00C0E7B177B518B
:100830000008D8B401D003D016EC00F012007B51B0
:100840000C08D8B401D003D016EC00F012002AEC4A
:1008500004F01200A451A05DD8B403D0D8B00DD0DC
:1008600010D0A551A15DD8B403D0D8B006D009D01E
:10087000A651A25DD8B001D004D021EC00F0788B55
:100880001200A551A1C07BF0A16F7BC0A5F0A651BD
:10089000A2C07BF0A26F7BC0A6F021EC00F0789B99
:1008A00012009E90EC0ECF6E9B0ECE6E798F5AEC9E
:1008B00004F01100799F78B112007D6FD8CF7EF0DF
:1008C000E0CF7FF0A0C080F0A1C081F0A2C082F094
:1008D000A3C083F0A4C084F0A5C085F0A6C086F0B4
:1008E000A7C087F0A8C088F0A9C089F0ACC08AF082
:1008F000ADC08CF0AEC08DF0AFC08EF0B0C08FF048
:10090000B1C090F0B2C091F0B3C092F0B4C093F017
:10091000B6C08BF07BC07CF078B303D0798130EC2B
:1009200003F07A2F04D040EC03F0040E7A6F7D516F
:100930007EC0D8FF7FC0E0FF80C0A0F081C0A1F0E2
:1009400082C0A2F083C0A3F084C0A4F085C0A5F04B
:1009500086C0A6F087C0A7F088C0A8F089C0A9F01B
:100960008AC0ACF08CC0ADF08DC0AEF08EC0AFF0E0
:100970008FC0B0F090C0B1F091C0B2F092C0B3F0AF
:0E09800093C0B4F08BC0B6F07CC07BF01200C8
:02098E001F6ADE
:10099000206A026A046A056A7BEC06F0B2EC06F093
:1009A000C0EC06F090EC06F00CEC06F005A6FAD7C9
:1009B00096EC05F08390839283948290046A056A92
:1009C000266AF28CF28E04AC03D06DEC05F0049C28
:1009D0000CEC06F032EC06F0C2A2C28204A4E3EFF3
:1009E00004F0D9EC06F00494E3EF04F0A4B224D0B0
:1009F000A4B427D0A4B62AD09EBC03D0A4B83CD0BF
:100A00001100C3CF1AF0C4CF19F0C3CF03F0C4CF85
:100A100002F0C3CF1CF0C4CF1BF0C3CF1EF0C4CF75
:100A20001DF01AC02CF019C02DF01DC02EF002C010
:100A300029F0048C9E9C11002BEC05F08370A4928D
:100A400011002BEC05F08372A49411002BEC05F03F
:100A50008374A496110005AA04D000EE09F08280E8
:100A600003D000EE11F0829080501C0BE840E8406B
:100A7000EB506B6E12001100253E03D0236A246AEE
:100A800016D06CA406D0232A140E236402D06C92D4
:100A900026806CAC06D0242A190E246402D06C9AED
:100AA0002682B40E1D6403D054EC06F026844E0E4C
:100AB00021620ED0200E22640BD00484216A226AA7
:100AC00026B0837026B2837226B48374A498110072
:100AD000223E1100212AA4981100300E02641BD07E
:100AE000F80E0260026E0250FB0DF3380F0B206E01
:100AF000F438F00B2012F4380F0B1F6E6E821F506B
:100B0000786E766E746E726E2050796E776E756E3A
:100B1000736E6E921200786A766A746A726A796A83
:100B2000776A756A736A2BEC05F01200070E966EF1
:100B3000150EC26E100EC16E320EC06E800E9A6E11
:100B4000440E996EC30EB86E000EB96E000E7F6E25
:100B5000E10E7B6E040E7A6E4F0E6F6E010E6E6E9E
:100B6000000E6D6E000E6B6E000E6A6EB30E6C6E34
:100B7000000E716E000E706E796A776A756A736A1C
:100B8000786A766A746A726A800E7E6E9284928641
:100B90009288190EB76E480E636E480E626E480E4C
:100BA000616E000E606E000EB66EBE0E946E828098
:100BB000D00E956E838083828384060E096E240E88
:100BC0000A6E000E0B6E210E0C6E120E0D6E000ED4
:100BD0000E6E180E0F6E090E106E090E116E180EA5
:100BE000126E000E136E120E146E210E156E000E94
:100BF000166E240E176E060E186E026A196A1A6AAD
:100C00001B6A1C6A1D6A1E6A9D8CA382A384A3862C
:100C1000A388930ED06E120083BC17EF06F005B0C8
:100C200012002CEC06F005A012000582120083BE13
:100C300022EF06F005B012002CEC06F005A0120021
:100C40000584120005A012000590058605A202D0B9
:100C500005781200057A1200062E120005804F0E4C
:100C6000066E120005A6120005A246EF06F005A8C2
:100C700040EF06F065EC06F00596059283821200BF
:100C800054EC06F0059605928392120005A412001A
:100C90008374839254EC06F0A5EC06F065EC06F044
:100CA00005960594838212009D9CA392A396A3941B
:100CB000A3986B6A786A766A746A726A796A776AE4
:100CC000756A736A049C026A12000588026A196ACE
:100CD0001A6A1B6A1C6A1D6A1E6A9D8CA382A386FF
:100CE000A384A388046AB30E6C6E26902692269481
:100CF0002BEC05F01200030E966E270EC26E000E4E
:100D0000C16E320EC06E000E9A6E000E996E020E0B
:100D1000B86E000EB96E94909590959295941200CD
:100D20008390839283948290400EC46412008280E8
:100D3000700EC46412008384A00EC4641200838207
:100D4000E00EC4641200838012001F0E076EFF0EB7
:100D5000086E082EA9EF06F0072EA7EF06F0076A27
:040D6000086A12000B
:0C0D6400810EAF6E240EAC6E900EAB6ED4
:100D7000949C948E12009EA8BBEF06F0AD6E1200FC
:100D8000000EF86E0D0EF76E9A0EF66E0900F55015
:100D9000D8B41200BBEC06F0F9D70A0D424C44431C
:100DA000204D6F746F7220436F6E74726F6C0A0DFA
:100DB000000033EC07F029C027F029EC08F047ECDD
:100DC00007F02AC027F029EC08F02BC027F029EC07
:100DD00008F05CEC07F072EC07F0B6AA03D007EC61
:100DE00008F002D018EC08F088EC07F02CC027F0CF
:100DF00029EC08F09DEC07F02DC027F029EC08F055
:100E0000B2EC07F02EC027F029EC08F0C7EC07F091
:100E100035C027F029EC08F036C027F029EC08F09F
:100E2000D7EC07F033C027F029EC08F034C027F0E6
:100E300029EC08F0E7EC07F037C027F029EC08F0C0
:100E400038C027F029EC08F0F7EC07F039C027F09C
:100E500029EC08F03AC027F029EC08F03BC027F055
:100E600029EC08F01200000EF86E0E0EF76E800EE0
:100E7000F66E0900F550D8B41200BBEC06F0F9D7B5
:100E80000A0A0D53706565645265663D2000000EC8
:100E9000F86E0E0EF76EA80EF66E0900F550D8B477
:100EA0001200BBEC06F0F9D70A0D4D6F746F72207B
:100EB00053706565643D2000000EF86E0E0EF76EEF
:100EC000D20EF66E0900F550D8B41200BBEC06F055
:100ED000F9D70A0D446972656374696F6E20436DBA
:100EE00064203A00000EF86E0E0EF76EFE0EF66EDF
:100EF0000900F550D8B41200BBEC06F0F9D70A0D82
:100F0000446972656374696F6E20416374203A00AE
:100F1000000EF86E0F0EF76E2A0EF66E0900F550F1
:100F2000D8B41200BBEC06F0F9D70A0D4375727203
:100F3000656E742055203D200000000EF86E0F0EE7
:100F4000F76E540EF66E0900F550D8B41200BBECE3
:100F500006F0F9D70A0D43757272656E742056203B
:100F60003D200000000EF86E0F0EF76E7E0EF66E3E
:100F70000900F550D8B41200BBEC06F0F9D70A0D01
:100F800043757272656E742057203D200000000E7C
:100F9000F86E0F0EF76EA80EF66E0900F550D8B475
:100FA0001200BBEC06F0F9D70A0D53520000000EF8
:100FB000F86E0F0EF76EC80EF66E0900F550D8B435
:100FC0001200BBEC06F0F9D70A0D53460000000EE4
:100FD000F86E0F0EF76EE80EF66E0900F550D8B4F5
:100FE0001200BBEC06F0F9D70A0D45490000000ECF
:100FF000F86E100EF76E080EF66E0900F550D8B4B4
:101000001200BBEC06F0F9D70A0D454F0000000EA8
:10101000F86E100EF76E280EF66E0900F550D8B473
:101020001200BBEC06F0F9D7464F5257415244002C
:10103000000EF86E100EF76E4A0EF66E0900F550AF
:10104000D8B41200BBEC06F0F9D7524556455253BE
:1010500045002750F00BE838300F39EC08F0BBECB6
:1010600006F027500F0B300F39EC08F0BBEC06F000
:101070001200286E390E286403D02850070F120082
:0410800028501200E2
:020000040030CA
:0E000000FF020E1E3C9D01FF0FC00FE00F40DF
:00000001FF
