:020000040000fa
:080000000002040000000000f2
:020000040000fa
:100400006f90200080bf20000001880000000000e5
:10041000050007000c0007008a050200000000002c
:100420000040da000000fe004440a90000a42000c3
:100430000000e0000300320000002000a00188005e
:100440004440a80000000600607f21000100200059
:100450001600370062004000e080480091018800eb
:100460009001ba0062004000e080480091018800dd
:100470009002ba0062004000e08048000002eb00f9
:100480006028e10005003a008301e900070033001d
:10049000038009000059eb00040037006128e100e7
:1004a000010032000082eb00050007009101880086
:1004b0001001ba000200e000e6ff3a00000005006b
:1004c000910188008002780062004000e0804800ce
:1004d0003559ba008301e900080032002559ba00f5
:1004e0008301e900050032000400e000f4ff32005f
:1004f00015d9ba008301e900f1ff3a0000000600b7
:10050000800078001106b100030035009101b100b0
:1005100001003c000050a10000000600889fbe00c2
:100520000004be00104880000000e000010032001e
:10053000000001000800e00001003a0008488000c7
:100540000800be00a5000700000444001804e000f5
:1005500004003a0040902000004888000004eb00ae
:10056000070037000800be00ae000700000044008e
:100570001004e000010032000058eb000048880041
:10058000080078004f04be0000000600ec8747001a
:10059000889fbe008a9fbe008c9fbe008e1f780081
:1005a000f0b79f0081bf9f008204780000047800ac
:1005b000010037000804e800184778000e00fb002f
:1005c000aa0007000000e000faff3a00d0c2b30022
:1005d000804f57000500320000c0e900804f5700ef
:1005e0000200320000477800010037000804e800ec
:1005f0000900e00045003500e18f5400430032005f
:1006000040022000808f540040003c000900e000c0
:100610000e003400f08f54001a003a0000c3b300fb
:10062000984f100016003a009840900080c7b30021
:1006300080cf50000300320080c5b30080cf50004f
:100640000f003a000884e8000e003700a9002000df
:1006500000c3b300984f10000a003a009840900081
:1006600080c7b30080cf5000040032008900200012
:1006700080c5b30080cf500002003a000884e80033
:100680000901200008057800010037000a05e8008c
:1006900000c3b3009a4f1000fcff32008a057800b7
:1006a0006066b8000e003700908c200000425200b7
:1006b000c4ef9f006149b9000c00be009b00070019
:1006c0004fea97000401fb00cf91de008b05e800a4
:1006d000ccb79f00ddb79f0000064100818649002e
:1006e0001b00fb006900070080007800090178000a
:1006f000908c20006c000700000278000000e000f1
:10070000e9ff3a008b0f540006003a000fb897003b
:100710000000e00029003200ffb0970001087800d7
:10072000260037008a805500408a20006940780002
:100730000000fb0000805000160033004240a9007a
:100740000f003c004fe997000200fb00cf80de0065
:100750000000560081805e00800f5600818f5e0091
:10076000070039006149b900600007004fb19700e8
:10077000dfb19700820f5000838f580005003200d0
:1007800020022000f04788000086eb008086eb0006
:1007900005003700d0c2b300804f570002003a0076
:1007a00060061600e0861e008fb997000300e00087
:1007b000030032008b097800010037006066b80042
:1007c0000c00be004f0778004f06be004f05be006c
:1007d0004f04be00cf00b100000006000002780008
:1007e0000b00370001017800924178000304e0001b
:1007f00002003a00040050000000060083cf5200bf
:10080000020032000201e800f7ff37000000e800b4
:10081000904278000504e000f2ff3a000400500026
:1008200000000600000278000700370083cf520066
:100830000a0032000201e800924178000304e0005f
:10084000faff3a000000e800904278000504e0005a
:100850000400320001017800f7ff37000400500067
:100860000000060004005000000006006900e100de
:10087000040035006d00e100030034000002b10007
:100880000100320000000500100005008000780023
:100890001104b100030035009101b10001003c00da
:1008a0000050a000000006000600370090cf1000a6
:1008b00002003a0000017800040037000000e80060
:1008c0000201e9000200e000f8ff3a0002007800af
:1008d00000000600e04780000000e0000100320058
:1008e00000000100e08f2000000006006022b80038
:1008f000060220000000d0008180d2000482d200d5
:100900008582d2000000a0000202520083825a00b9
:10091000030031000202420083824a000000a1006d
:100920000603e900f3ff3a0000000600020ab900de
:10093000001bb9000200b8008100420081004300a2
:10094000000006002110880030108800000006001a
:1009500007e2a9009600a9009620a9008600a90038
:100960008620a9000000060006c2bf000008a30000
:10097000fdff3a0006c2bf000028a300faff3a00bc
:1009800006c2bf000038a300f7ff3a0006c2bf004e
:100990000048a300f4ff3a0009c2bf000068a300aa
:1009a000f1ff3a00000006000602a8000000060061
:1009b0000642a800000006000622a800000006006b
:1009c0000080fb001010880008c2bf0001c8b300ff
:1009d000014060000080fb000000e9004f00de00e5
:1009e0000000e900000006003600f800809fbe000d
:1009f000829fbe00849fbe00869fbe003400f80028
:100a000000c0b300a00188000000fa008400a90023
:100a1000980407000080fa003400f9004f03be007c
:100a20004f02be004f01be004f00be003600f9006d
:100a3000004006003600f800809fbe00829fbe0086
:100a4000849fbe00869fbe00881f78003400f80097
:100a500000c0b300a00188000000fa0030002000b0
:100a6000bd0107000080fb00904788000000eb00fc
:100a7000b90107000080fb004804dd0010002000e1
:100a8000b50107000080fb0000004400d04788004b
:100a900070002000b0010700eee8b700d1478000e9
:100aa000b0ff2100808f500010003e000b020700b5
:100ab0006c000700b0478800b5000700c0478800f9
:100ac000c882a900cc82a90090478000e9010700f4
:100ad000eec8bf004d000700a0478800c882a800ec
:100ae000cc82a800f5000700fc0107008460a90083
:100af0000080fa003400f9004f0478004f03be0074
:100b00004f02be004f01be004f00be003600f9008c
:100b1000004006000000fa00103a80000001780052
:100b20000210a00061042000700520002374200042
:100b3000814978008049780082497800113a800024
:100b4000f00b20000081600061042000700520008f
:100b50002374200081497800804978008249780018
:100b6000e16c20009140780000ceb30000c060002e
:100b70003040b300cee6b700416a200091407800d3
:100b800000ceb30000c06000f040b300a4e6b700a0
:100b9000113a8000000420000081700061042000f0
:100ba0007005200023742000814978008049780076
:100bb0008249780000012000d04788000401070026
:100bc00020002000640107000080fb0080478800af
:100bd000804780006003070069010700410a200088
:100be0009140780080cfb30000c060000004a000f6
:100bf000a4e0b7009400a80005e1a8000080eb0085
:100c0000401688000040fe00fcff37000600fa0096
:100c1000404798000000eb00100798000000eb0030
:100c2000000f78000700370072010700800078008d
:100c30001e009000008040000000d10010079800c6
:100c40001e0fe8004e4090000080fb009e0f5000f9
:100c5000f5ff3e00740107001e0090000080fa00be
:100c6000000006000400fa00c822a80000000000ee
:100c7000c922a900cb22a900c922a900cb22a80021
:100c8000c922a900cb22a900c922a900cb22a80011
:100c9000c922a900cb22a900c922a900cb22a80001
:100ca000c922a900cb22a900c922a900cb22a800f1
:100cb000c922a900cb22a900c922a900cb22a800e1
:100cc000c922a900cb22a900c922a900cb22a800d1
:100cd000c922a900cb22a900c922a900cb22a800c1
:100ce000c922a900cb22a900c922a900cb22a800b1
:100cf000c922a900cb22a900c922a900cb22a800a1
:100d0000c922a900cb22a900c922a900cb22a80090
:100d1000c922a900cb22a900c922a900cb22a80080
:100d2000c922a900cb22a900c922a900cb22a9006f
:100d3000c822a80000000000c922a900cb22a800f8
:100d4000ca22a900c822a900c922a900cb22a90051
:100d5000c922a900cb22a800c822a80000000000d8
:100d6000c922a900cb22a90030c0b300620207004b
:100d7000cd0107001007980010c0b300dc01070088
:100d8000004f78001e0090000080fa00000006006e
:100d90000400fa00c822a80000000000c922a9002f
:100da000cb22a900c922a900cb22a800c922a900f0
:100db000cb22a900c922a900cb22a800c922a900e0
:100dc000cb22a900c922a900cb22a800c922a900d0
:100dd000cb22a900c922a900cb22a800c922a900c0
:100de000cb22a900c922a900cb22a800c922a900b0
:100df000cb22a900c922a900cb22a800c922a900a0
:100e0000cb22a900c922a900cb22a800c922a9008f
:100e1000cb22a900c922a900cb22a800c922a9007f
:100e2000cb22a900c922a900cb22a800c922a9006f
:100e3000cb22a900c922a900cb22a800c922a9005f
:100e4000cb22a900c922a900cb22a800c922a9004f
:100e5000cb22a900c922a900cb22a900c822a80040
:100e600000000000c922a900cb22a800ca22a900c4
:100e7000c822a900c922a900cb22a900c922a90021
:100e8000cb22a800c822a80000000000c922a900a7
:100e9000cb22a90050c0b30017020700820107004f
:100ea0001007980010c0b30091010700004f7800b0
:100eb0001e0090000080fa00000006000800fa0002
:100ec000a04780004800de00804078000e80e800e7
:100ed00001487800a0478000804078000e80e8003c
:100ee00011409800c04780004800de008040780034
:100ef0000e80e80021409800c047800080407800c4
:100f00000e80e80031409800b04780004800de00c5
:100f1000804078000e80e80041409800b047800093
:100f2000804078000e80e80051409800006a280058
:100f300011002000db0007000000eb00000f78002c
:100f40000d003700d04780009e00400000c0eb003d
:100f5000e6000700d04780001e0140009e00780098
:100f60000e80e80000804000104078008200780089
:100f7000de0007001e0fe800500020009e0f10004a
:100f8000f0ff3600d047800066004000d047880060
:100f90008000eb0000c0eb00d4000700110020002f
:100fa00000c0eb00d1000700d04780004800de0001
:100fb0008000eb00cd000700d0478000110020002a
:100fc000ca000700c50007000080fa000000060004
:100fd0001200fa00881f7800006a28001100200023
:100fe000b00007000000eb00000f78000800370099
:100ff0001e0478001e007800d600070080407800ac
:101000000e80e80000004400014878001e0fe80050
:10101000f00020009e0f1000f5ff34000e80e80065
:10102000c0489000a0cab30080cf500006003a002c
:101030000e80e800d0489000a0cab30080cf5000d6
:1010400042003a00410037008e80e8000040eb008b
:10105000804878008e80e80000c1b300904098007e
:101060008e80e800a0c0b300a04098008e80e80009
:1010700090c1b300b04098008e80e80060c1b3001a
:10108000c04098008e80e80060c0b300d040980057
:101090008e80e80080c0b300e04098008e80e800b9
:1010a000a0c0b300f04098008e80e80020c1b300db
:1010b000804898008e80e800b0c2b3009048980045
:1010c0008e80e8000040eb00a04898008e80e80089
:1010d0000040eb00b04898008e80e800a0cab30042
:1010e000c04898008e80e800a0cab300d04898009d
:1010f0008e80e800a0ceb300e04898008e80e80023
:1011000050c0b300f04898000000eb00000f7800da
:101110000b0037009e00780000c0eb007300070052
:101120001e0178009e0078000e80e80000804000dc
:1011300010407800820078006c0007001e0fe80065
:10114000f00020009e0f1000f2ff34004f047800e2
:101150000080fa00000006000200fa00000f78008c
:10116000006a2800110020004e0007001e007800d1
:10117000780007000080fb000080fa0000000600f5
:101180000000fa000080eb00601988002c03a90021
:101190002c23a9002c43a90000402200001988003c
:1011a0000000eb001019880023c3bf007f406000df
:1011b00001c6b3000140700023e3b7000000eb005c
:1011c00020198800813220009140780000ceb300c1
:1011d00000c060000014a00028e3b70028e3a900c5
:1011e0000000eb008019880085a0a9000080fa00ab
:1011f000000006000000fa0021e3a8000e0007002e
:101200002023a800160007002023a90020c3bf0048
:10121000614060000004e000fcff32000018800024
:101220000080fa00000006000000fa0021e3a90097
:101230000080fa00000006000000fa00600e0900bd
:10124000000000000080fa00000006000000fa0024
:1012500070010900000000000080fa000000060094
:101260000000fa0025000900000000000080fa00dc
:10127000000006000400fa00100798000000eb00d0
:10128000000f780002003700ebff07001e0fe80098
:101290001e0090009e0f1000fbff39000080fa0036
:1012a000000006000600fa001007980021079800c9
:1012b0001e019000ae01900000702200810320000a
:1012c0008afd0700000fe9009e00780000222f0031
:1012d0009cfd07000080fa00000006000000fa00f4
:1012e0009bfd07000080fa00000006000400fa00e1
:1012f000004f7800110798009bfd0700aafd07002a
:1013000006c2bf00614060000004e000fcff3a003c
:101310008620a90000cab3003f0007001e0090000d
:101320004800de003c0007001e0090003a00070065
:101330001e407800380007009dfd070006c2bf0070
:10134000644060000004e000fcff3a000080fa0006
:10135000000006000400fa001007980082fd070054
:1013600091fd070006c2bf00614060000004e0007c
:10137000fcff3a008620a90000cab300260007003f
:101380001e0090004800de00230007001e009000b1
:101390002100070074fd070087fd070006c2bf009b
:1013a000624060000004e000fcff3a008620a900d3
:1013b00010cab3001800070006a2a8008620a900e2
:1013c0000662a80008c2bf00624060000004e0009e
:1013d000fcff320000108000004f78008620a9003a
:1013e0000682a80006c2bf00704060000004e00052
:1013f000fcff3a000642a80008c2bf00704060002f
:101400000004e000fcff32008620a9001e80fb00e3
:101410000080fa00000006000200fa00004f780089
:101420001e40780066fd070008c2bf0061406000f2
:101430000004e000fcff3a0086c0bf00624060008c
:101440000004e000fcff32008620a90009c2bf00b2
:1014500001c8b300014060000004e000fbff3a0057
:101460000080fa00000006000200fa00006a28006e
:10147000110020008bff07000000eb00000f780038
:10148000040037009e00780000c0eb0097ff0700c3
:101490001e0fe800f0ff21009e0f1000f9ff36003c
:1014a0000080fa00000006000200fa00c822a8002e
:1014b000cac2bf00624060000004e000fcff3a00c6
:1014c0000040eb000a0007000080fb004800dd0040
:1014d000000f78000040eb00050007000080fb00d3
:1014e0001e0f70001e0078000080fa000000060049
:1014f0000400fa00204798000040eb00004f7800fd
:10150000c822a800cac2bf000080fb000000d100b2
:10151000614060000080fb004700dd0080407800f3
:101520001e40780000c07000004f7800c922a9005a
:10153000cb22a800c922a900cb22a900cac2bf00a1
:101540000080fb000000d100614060000080fb00d3
:101550004600dd00804078001e40780000c070002a
:10156000004f7800c922a900cb22a800c922a900f7
:10157000cb22a900cac2bf000080fb000000d1003e
:10158000614060000080fb004500dd008040780085
:101590001e40780000c07000004f7800c922a900ea
:1015a000cb22a800c922a900cb22a900cac2bf0031
:1015b0000080fb000000d100614060000080fb0063
:1015c0004400dd00804078001e40780000c07000bc
:1015d000004f7800c922a900cb22a800c922a90087
:1015e000cb22a900cac2bf000080fb000000d100ce
:1015f000614060000080fb004300dd008040780017
:101600001e40780000c07000004f7800c922a90079
:10161000cb22a800c922a900cb22a900cac2bf00c0
:101620000080fb000000d100614060000080fb00f2
:101630004200dd00804078001e40780000c070004d
:10164000004f7800c922a900cb22a800c922a90016
:10165000cb22a900cac2bf000080fb000000d1005d
:10166000614060000080fb00000040008040780086
:101670001e40780000c07000004f7800c922a90009
:10168000cb22a800c922a900cb22a900cac2bf0050
:101690000080fb000000d100614060001e4f700020
:1016a000c922a900cb22a800c922a900cb22a900e7
:1016b000c822a9002e409000614060006140600097
:1016c00000414000a12c200091407800d0cfb30011
:1016d00000c0600002407000cae2b700c922a90041
:1016e000cb22a800c922a900cb22a9001e80fb00a2
:1016f0000080fa00000006000200fa00004f7800a7
:10170000c822a900c922a900cb22a9001e40780046
:101710008040eb00114798000004e00002003d000b
:1017200010c0b300104798009e40900061c0600058
:1017300000414000a12c200091407800d0cfb300a0
:1017400000c0600002407000cae2b700c922a900d0
:10175000cb22a800c922a900cb22a9001e80fb0031
:101760004600de0061406000614060006140600052
:101770006140600000414000a12c200091407800b1
:10178000d0cfb30000c0600002407000cae2b700d2
:10179000c922a900cb22a800c922a900cb22a900f6
:1017a0001e80fb004500de0061406000614060007b
:1017b000614060006140600000414000a12c2000b9
:1017c00091407800d0cfb30000c0600002407000ac
:1017d000cae2b700c922a900cb22a800c922a900e9
:1017e000cb22a9001e80fb004400de0061406000a7
:1017f0006140600061406000614060000041400065
:10180000a12c200091407800d0cfb30000c0600030
:1018100002407000cae2b700c922a900cb22a8008a
:10182000c922a900cb22a9001e80fb004300de00d4
:1018300061406000614060006140600061406000a4
:1018400000414000a12c200091407800d0cfb3008f
:1018500000c0600002407000cae2b700c922a900bf
:10186000cb22a800c922a900cb22a9001e80fb0020
:101870004200de0061406000614060006140600045
:101880006140600000414000a12c200091407800a0
:10189000d0cfb30000c0600002407000cae2b700c1
:1018a000c922a900cb22a800c922a900cb22a900e5
:1018b0001e80fb000000d1006140600061406000bc
:1018c000614060006140600000414000a12c2000a8
:1018d00091407800d0cfb30000c06000024070009b
:1018e000cae2b700c922a900cb22a800c922a900d8
:1018f000cb22a9009e40780061c06000614060007a
:10190000614060006140600000414000a12c200067
:1019100091407800d0cfb30000c06000024070005a
:10192000cae2b700c922a900cb22a800c822a80099
:10193000c922a900cb22a900c922a900cb22a90053
:10194000c922a900cb22a800c922a900cb22a90044
:101950000080fa00000006000200fa00000f780084
:10196000411020009140780000c3b30000c0700017
:1019700004e1b7000421a8000441a9000000eb0025
:10198000000888001e0078004700dd000000e90024
:10199000100888008460a9009460a8000080fa0004
:1019a000000006000000fa00b0002000401188008e
:1019b0000000eb00001188000000eb00101188000f
:1019c00021e2a8002342a8008560a9000080fa0057
:1019d000000006000000fa002342a90021e2a9004d
:1019e0000080fa00000006000200fa00004f7800b4
:1019f00023c2bf00624060000004e000fcff3a0028
:101a00001e00fb00201188000080fa000000060084
:101a10000400fa00100798001e009000000f7800e4
:101a2000040037001e007800104078001e0fe80008
:101a3000edff07001e007800104078000004e00071
:101a4000f8ff3a000080fa00000006000200fa00e9
:101a500085c0bf00684060000004e000fcff320069
:101a600030118000004f78008560a9001e00fb0047
:101a70000080fa00000006000200fa00000f780063
:101a8000f07022009e0f1000060036001e00780045
:101a900002712200110009000280d8000043b0004a
:101aa000d1ff07001e00780002712200110009001a
:101ab0000280d80080007800007122000088b90000
:101ac0001e0f1000703e20009e0f10000600360012
:101ad0001e007800823e2000110009000280d8001c
:101ae0000043b000c0ff07001e007800823e2000c7
:101af000110009000280d80080007800803e20009c
:101b00000088b9001e0f1000300620009e0f100044
:101b1000060036001e007800420620001100090071
:101b20000280d8000043b000afff07001e0078001d
:101b300042062000110009000280d80080007800d1
:101b4000400620000088b9001e0f10009000200001
:101b50009e0f1000060036001e007800a200200034
:101b6000110009000280d8000043b0009eff07006a
:101b70001e007800a2002000110009000280d80099
:101b80006a00b9001e0f10001e0078000043b0006c
:101b900095ff07000080fa00000006000400fa002c
:101ba000204798000040eb00104798000040eb00f1
:101bb000004f78002e4090006f4f600090c0b3003f
:101bc0009e4f1000040036001e4078007043b000a5
:101bd000004f7800030037001e4078000043b0003b
:101be000004f78002e4090000080fb004400de0093
:101bf0006f406000104798001e409000e94f500071
:101c0000040036001e4090007043b000104798005a
:101c1000030037001e4090000043b00010479800ba
:101c20001e40900070ff07001e4078006eff070006
:101c30000080fa00000006000400fa001007980077
:101c40001e009000c800de00f00f2000008f600032
:101c50001e007800d1ff07009e009000f00f2000ca
:101c6000008f60001e007800ccff07000080fa00a3
:101c7000000006002a00fa0010c0b3005047980088
:101c800005e1a9008460a9006600470010079800dc
:101c900044ff0700008220005dff07004082200013
:101ca0005bff0700e083200059ff0700b08520009c
:101cb00057ff0700e089200055ff07000c003700a0
:101cc00062ff07000000fb000dfa0700804078006b
:101cd0001e009000014878001e009000104078001f
:101ce00041ff07001e0090000000e8001007980068
:101cf0001e0090000000e90010407800ed4f5000f9
:101d0000efff3a009e0090000040eb008048780012
:101d10001e0090000000e9001007980066004700d0
:101d200010079800612d29001e009000fbf90700a4
:101d3000000f78001e00780090407800414798001e
:101d40004e4090000000fb006101b900f0fb2f0045
:101d5000f1ff2f00020140008381480032179800f4
:101d60004317980070012000010020003e119000f0
:101d7000ce119000800f5100818f590034003e0039
:101d80003e109000ce109000006001001b00370054
:101d9000160037002e0037002100370026003700dc
:101da0002b0037002a0037001b00370028003700bf
:101db00027003700260037002500370024003700b1
:101dc0002300370022003700210037000d003700c4
:101dd0001b00370016003700130037001c003700c7
:101de0001b003700030037001700370026000700ec
:101df000190037004000070017003700580007009f
:101e000015003700902d290001ff07000040eb006e
:101e100050479800100037004c0107000e003700b3
:101e2000690007000c003700850007000a00370032
:101e3000b60007000800370035010700060037002c
:101e40005f01070004003700990107000200370016
:101e5000202f2900eefe070070302900ecfe07005d
:101e600066004700100798005e4090000004e00004
:101e700090ff3a0026010700d6fe070005e1a80002
:101e80000080fa00000006000200fa00bc01070012
:101e9000000f78001e00e0000f003200f00f20005d
:101ea0009e0f10000c003e00006a28001100200068
:101eb000fcfc07002100200000c0eb000bfd070028
:101ec0001e0078002100200008fd07001e00780099
:101ed000a1fe070006003700c0302900ccfe070035
:101ee00000802000cafe070090312900c8fe0700cc
:101ef0000080fa00000006000200fa00a0010700be
:101f0000000f78001e00e0000d003200f00f2000ee
:101f10009e0f10000a003e00006a280011002000f9
:101f2000e0fc07003100200000c0eb00effc0700e0
:101f30001e00780031002000ecfc0700060037008e
:101f4000b0322900b2fe070000802000b0fe07007a
:101f5000b0332900aefe07000080fa000000060042
:101f60000200fa0086010700000f78001e00e00062
:101f70000d003200400120009e0f10000a003e00bc
:101f8000006a280011002000c6fc07007100200034
:101f900000c0eb00d5fc07001e0078007100200097
:101fa000d2fc0700060037009034290098fe070095
:101fb0000080200096fe07005035290094fe07009f
:101fc0000080fa00000006000600fa006c0107001d
:101fd000100798006a0107002007980068010700b1
:101fe000000f7800006a280011002000adfc0700f7
:101ff0004100200000c0eb00bcfc07001e00900068
:1020000041002000b9fc07005100200000c0eb0097
:10201000b6fc07002e00900051002000b3fc070022
:102020006100200000c0eb00b0fc07001e0078003b
:1020300061002000adfc07000080fa0000000600ef
:102040000800fa0010c0b300004f78004c010700f0
:10205000300798004a010700200798004801070050
:1020600010079800be009000b0032000808f500041
:102070000a003e00ae009000b0032000808f5000a8
:1020800006003e009e009000b0032000808f5000ac
:1020900002003e000040eb00004f78001e04e0000c
:1020a00016003a00006a2800110020007dfc07009d
:1020b0008100200000c0eb008cfc07003e00900077
:1020c0008100200089fc07009100200000c0eb0087
:1020d00086fc07002e0090009100200083fc070082
:1020e000a100200000c0eb0080fc07001e00900053
:1020f000a10020007dfc070002003700f035290018
:1021000043fe07000080fa00000006001400fa00f9
:10211000881f78000000eb000ffc07000080fb0028
:102120004804dd00100020000bfc07000080fb00cd
:1021300000004400000f78002000200006fc07008b
:102140000080fb00100f98003000200002fc070008
:102150000080fb00000f980070002000fefb0700cd
:102160000080fb007007980040002000fafb070089
:102170000080fb006007980050002000f6fb07007d
:102180000080fb005007980060002000f2fb070071
:102190000080fb004007980080002000eefb070055
:1021a0000080fb003007980090002000eafb070049
:1021b0000080fb0020079800a0002000e6fb07003d
:1021c0000080fb00100798007037290010fe070000
:1021d0001e00780028fe0700c03829000cfe07000a
:1021e0001e00780094fe07000039290008fe070051
:1021f0004039290006fe07001e0890001efe070059
:10220000903a290002fe0700403b290000fe07002b
:102210000e08900018fe0700903c2900fcfd070006
:10222000f03c2900fafd07007e00900012fe070036
:10223000403e2900f6fd0700003f2900f4fd07009d
:102240006e0090000cfe070050402900f0fd0700d2
:102250005e00900008fe070050402900ecfd0700da
:102260004e009000e90f500003003e00704029002e
:10227000e7fd070002003700b0402900e4fd070039
:102280004e009000fcfd0700e0402900e0fd070043
:1022900010412900defd07003e009000e90f5000cc
:1022a00002003e0060422900d9fd07003e00900078
:1022b000f1fd070080422900d5fd07002e009000a7
:1022c000e90f500002003e0060422900d0fd0700e7
:1022d0002e009000e8fd070080422900ccfd070099
:1022e0001e009000e90f500002003e0060422900ed
:1022f000c7fd07001e009000dffd0700e040290039
:10230000c3fd07004f0478000080fa0000000600bb
:102310000000fa00006a280011002000e1fb07001d
:102320008000eb000040eb00f0fb070011002000f4
:1023300000c0eb00edfb07001100200000c1b3005e
:10234000eafb07000080fa00000006000000fa0027
:10235000a0422900aefd0700d0442900acfd0700d3
:1023600070482900aafd0700f04b2900a8fd0700ce
:1023700060512900a6fd070000552900a4fd0700b3
:1023800010592900a2fd0700e05d2900a0fd07000b
:10239000d06029009efd0700c06229009cfd070057
:1023a000806829009afd0700f06a290098fd07005f
:1023b000806d290096fd07000080fa0000000600ed
:1023c0000c00fa007000200063fb0700004f78004b
:1023d0006b000700400798004e00900050079800df
:1023e0005e009000e20f5000150032005e00900089
:1023f000e30f50001c0032005e009000e10f50001f
:102400000100320022003700c882a900cc82a90056
:102410002003200097fb07001e407800fbf907000f
:10242000300798002072290079fd07003e009000d7
:1024300001fe07005072290075fd07001a003700e1
:10244000a6fb070052fa0700200798002072290017
:102450006ffd07002e009000f7fd07003076290081
:102460006bfd0700100037009cfb0700fdf907001b
:10247000100798002072290065fd07001e009000db
:10248000edfd0700f079290061fd07000600370027
:10249000c07d29005efd0700008020005cfd070074
:1024a000a07e29005afd07000080fa000000060007
:1024b0000600fa00881f78000000eb0026fb0700ea
:1024c0000080fb004804dd001000200022fb070014
:1024d0000080fb000000440020079800000120005d
:1024e000100798001f0037001e0090007000500079
:1024f00062002000110009000280d8008000fd0069
:102500000000e00008003a00e040290040fd07001c
:10251000207229003efd07001e009000c6fd070046
:10252000307f29003afd07001e0090000afb0700db
:102530000080fb00000f78001e00780097fd070068
:102540001e009000610060000004e0000200320004
:10255000307f29002efd07001e0090000000e800db
:10256000100798009e0090002e009000808f500071
:10257000ddff39004f0478000080fa0000000600fb
:102580000200fa00612d29000000eb00e3f70700cc
:10259000000f7800a20020008000eb001e007800f1
:0c25a000faf707000080fa0000000600b7
:020000040000fa
:0200000401f009
:04000800fdff0000f8
:020000040000fa
:0200000401f009
:04000c00f8ff0000f9
:020000040000fa
:0200000401f009
:04001000dfff00000e
:020000040000fa
:0200000401f009
:0400140060ff000089
:020000040000fa
:10000800ca180000ca180000ca180000ca18000060
:10001800ca180000ca180000ca180000ca18000050
:10002800f4040000ca180000ca1800001a050000ed
:10003800ca180000ca180000ca180000ca18000030
:10004800ca180000ca180000ca180000ca18000020
:10005800ca180000ca180000ca180000ca18000010
:10006800ca180000ca180000ca180000ca18000000
:10007800ca180000ca180000ca180000ca180000f0
:10008800ca180000ca180000ca180000ca180000e0
:10009800ca180000ca180000ca180000ca180000d0
:1000a800ca180000ca180000ca180000ca180000c0
:1000b800ca180000ca180000ca180000ca180000b0
:1000c800ca180000ca180000ca180000ca180000a0
:1000d800ca180000ca180000ca180000ca18000090
:1000e800ca180000ca180000ca180000ca18000080
:1000f800ca180000ca180000ca180000ca18000070
:10010800ca180000ca180000ca180000ca1800005f
:10011800ca180000ca180000ca180000ca1800004f
:10012800ca180000ca180000ca180000ca1800003f
:10013800ca180000ca180000ca180000ca1800002f
:10014800ca180000ca180000ca180000ca1800001f
:10015800ca180000ca180000ca180000ca1800000f
:10016800ca180000ca180000ca180000ca180000ff
:10017800ca180000ca180000ca180000ca180000ef
:10018800ca180000ca180000ca180000ca180000df
:10019800ca180000ca180000ca180000ca180000cf
:1001a800ca180000ca180000ca180000ca180000bf
:1001b800ca180000ca180000ca180000ca180000af
:1001c800ca180000ca180000ca180000ca1800009f
:1001d800ca180000ca180000ca180000ca1800008f
:1001e800ca180000ca180000ca180000ca1800007f
:0801f800ca180000ca1800003b
:020000040000fa
:10020800ca180000ca180000ca180000ca1800005e
:10021800ca180000ca180000ca180000ca1800004e
:10022800f4040000ca180000ca1800001a050000eb
:10023800ca180000ca180000ca180000ca1800002e
:10024800ca180000ca180000ca180000ca1800001e
:10025800ca180000ca180000ca180000ca1800000e
:10026800ca180000ca180000ca180000ca180000fe
:10027800ca180000ca180000ca180000ca180000ee
:10028800ca180000ca180000ca180000ca180000de
:10029800ca180000ca180000ca180000ca180000ce
:1002a800ca180000ca180000ca180000ca180000be
:1002b800ca180000ca180000ca180000ca180000ae
:1002c800ca180000ca180000ca180000ca1800009e
:1002d800ca180000ca180000ca180000ca1800008e
:1002e800ca180000ca180000ca180000ca1800007e
:1002f800ca180000ca180000ca180000ca1800006e
:10030800ca180000ca180000ca180000ca1800005d
:10031800ca180000ca180000ca180000ca1800004d
:10032800ca180000ca180000ca180000ca1800003d
:10033800ca180000ca180000ca180000ca1800002d
:10034800ca180000ca180000ca180000ca1800001d
:10035800ca180000ca180000ca180000ca1800000d
:10036800ca180000ca180000ca180000ca180000fd
:10037800ca180000ca180000ca180000ca180000ed
:10038800ca180000ca180000ca180000ca180000dd
:10039800ca180000ca180000ca180000ca180000cd
:1003a800ca180000ca180000ca180000ca180000bd
:1003b800ca180000ca180000ca180000ca180000ad
:1003c800ca180000ca180000ca180000ca1800009d
:1003d800ca180000ca180000ca180000ca1800008d
:1003e800ca180000ca180000ca180000ca1800007d
:0803f800ca180000ca18000039
:020000040000fa
:1025ac00202c0000000d00000a4500007869000096
:1025bc0074200000667200006f6d0000206800003f
:1025cc006f730000742000006d6f000064650000e4
:1025dc002e0d00000a0000000d0a0000436f0000e1
:1025ec006d6d0000616e0000642000006e6f0000d5
:1025fc0074200000666f0000756e0000642e0000f1
:10260c00000d00000a4f00006b0000000d0a0000d6
:10261c00546900006d6500002d62000061730000bc
:10262c006520000000310000207400006f200000c5
:10263c00323500003520000073650000636f000028
:10264c006e6400000d0a0000000d00000a57000027
:10265c00617200006d2d0000757000002074000088
:10266c00696d00006520000000310000207400003e
:10267c006f20000032350000352000006d73000023
:10268c000d0a0000000d00000a41000076650000f4
:10269c0072610000676500007320000000310000cb
:1026ac00207400006f200000323000000d0a000082
:1026bc00000d00000a540000696d00006520000048
:1026cc00666f0000726d00006174000020690000ec
:1026dc0073200000777200006f6e0000672e000000
:1026ec000046000072650000652000006164000077
:1026fc006472000065730000732000002e2e000031
:10270c002e2e0000203d000020000000283000008c
:10271c0078000000290d00000a0000005469000038
:10272c006d6500002d6200006173000065200000e3
:10273c002e2e00002e2e00002e2e00002e2000002b
:10274c003d2000000020000073650000636f000056
:10275c006e640000730d00000a0000005761000059
:10276c00726d00002d75000070200000746900006f
:10277c006d650000202e00002e2e00002e20000083
:10278c003d200000002000006d7300000d0a0000c9
:10279c000041000076650000726100006765000072
:1027ac00732000002e2e00002e2e00002e2e000076
:1027bc002e2e0000203d00002000000020610000b3
:1027cc00766500007261000067650000730d000003
:1027dc000a000000496e0000697400006961000085
:1027ec006c2000004461000074650000202e000085
:1027fc002e2e00002e2000003d200000002c00009a
:10280c0000320000303000000032000030000000c8
:10281c000d0a0000004900006e6900007469000098
:10282c00616c000020540000696d00006520000000
:10283c002e2e00002e2e0000203d00002000000057
:10284c00300000003a0000000d0a0000537900002f
:10285c006e74000061780000206f0000662000009c
:10286c006163000063650000707400006564000023
:10287c00206300006f6d00006d6100006e6400004d
:10288c00733a0000200d00000d0a0000003c00000f
:10289c00422c000078780000783e0000202e0000ca
:1028ac002e2e00002e2e00002e200000536500005e
:1028bc00742000006e650000772000007469000031
:1028cc006d6500002062000061730000652e000041
:1028dc0020780000787800003d3100002074000062
:1028ec006f200000323500003520000073650000b9
:1028fc00636f00006e640000732e00000d0a000070
:10290c00003c0000572c000078780000783e000056
:10291c00202e00002e2e00002e2e00002e20000057
:10292c0053650000742000006e65000077200000e5
:10293c0077610000726d00002d75000070200000a2
:10294c00746900006d6500002e200000787800008e
:10295c00783d000031200000746f00002032000030
:10296c0035350000206d0000732e00000d0a0000ac
:10297c00003c0000412c0000787800003e20000054
:10298c002e2e00002e2e00002e2e00002e200000d9
:10299c005365000074200000617600006572000031
:1029ac006167000065730000206e0000756d00000b
:1029bc0062650000722e0000204f00006e6c00005b
:1029cc0079200000666f0000722000007072000019
:1029dc0065730000737500007265000020630000d1
:1029ec00686100006e6e0000656c00002e20000017
:1029fc0078780000783d000031200000746f0000f2
:102a0c00203200003020000061760000657200006a
:102a1c0061670000657300002e0d00000a000000c5
:102a2c003c4400002c440000442c00004d4d0000a0
:102a3c002c590000593e0000202e000020530000ad
:102a4c0065740000206e00006577000020440000d3
:102a5c0061740000652e000020440000443d00001d
:102a6c0064610000792c0000204d00004d3d0000f9
:102a7c006d6f00006e740000682c0000205900007f
:102a8c00593d000079650000617200002e0d0000b8
:102a9c000a0000003c5400002c680000682c000068
:102aac006d6d00002c730000733e0000202e0000a2
:102abc002053000065740000206e00006577000054
:102acc0020540000696d0000652e00002068000095
:102adc00683d0000686f000075720000732c0000e8
:102aec00204d00004d3d00006d6900006e7500002a
:102afc0074650000732c000020590000593d000043
:102b0c0073650000636f00006e640000732e00009c
:102b1c000d0a0000003c0000583e0000202e000072
:102b2c002e2e00002e2e00002e2e00002e2e000029
:102b3c002e200000536500006e740000206400001d
:102b4c006174000061200000746f000020680000b8
:102b5c006f730000742e000020460000726f00009e
:102b6c006d20000066690000727300007420000084
:102b7c00746f0000206c0000617300007420000072
:102b8c006672000065650000206d0000656d000038
:102b9c006f720000792000006c6f00006361000010
:102bac00746900006f6e00002e0d00000a0000001a
:102bbc003c5300003e2000002e2e00002e2e000064
:102bcc002e2e00002e2e00002e2e00002052000073
:102bdc0065610000642000006163000074750000f2
:102bec00616c00002070000061720000616d0000db
:102bfc0065740000657200007320000073650000ae
:102c0c0074750000702e00000d0a0000003c0000de
:102c1c00453e0000202e00002e2e00002e2e00001f
:102c2c002e2e00002e2e00002e20000045720000db
:102c3c006173000065200000656500007072000083
:102c4c006f6d00002e0d00000a0000003c520000c9
:102c5c002c7800003e2000002e2e00002e2e0000ae
:102c6c002e2e00002e2e0000205200006561000068
:102c7c00642000006120000074720000616e00008e
:102c8c00736400007563000065720000207600001c
:102c9c00616c0000756500002e20000028690000a2
:102cac006e2000007261000077200000666f00004b
:102cbc00726d000061740000292000002078000073
:102ccc003d3100002920000041620000732e0000fd
:102cdc002050000072650000737300002c2000006f
:102cec003229000020520000482c00002033000044
:102cfc0029200000546500006d7000002e0d0000ae
:102d0c000a0000003c5100003e2000002e2e000066
:102d1c002e2e00002e2e00002e2e00002e2e000037
:102d2c0020450000786900007374000020660000e4
:102d3c00726f00006d200000686f0000737400005b
:102d4c00206d00006f640000652e00000d0a00006d
:102d5c00003c0000483e0000202e00002e2e0000fb
:102d6c002e2e00002e2e00002e2e00002e200000f5
:102d7c005468000069730000206c00006973000047
:102d8c00742000006f660000206300006f6d00006f
:102d9c006d6100006e640000732e00000d0d0000cc
:102dac000a0000004e4f0000544500003a2000007d
:102dbc00457800006974000020660000726f000006
:102dcc006d200000686f000073740000206d00001f
:102ddc006f64000065200000696d0000706c0000dd
:102dec0069650000732000007468000061740000c5
:102dfc002065000065700000726f00006d200000ff
:102e0c006973000020610000757400006f6d000094
:102e1c006174000069630000616c00006c79000053
:102e2c00206500007261000073650000642e0000d4
:102e3c000d0d00000a00000030780000002000009a
:102e4c00313200002d620000697400002072000015
:102e5c00657300002e20000073630000616c00009d
:102e6c00696e000067200000667200006f6d000044
:102e7c0020370000366b0000506100002028000055
:102e8c003078000030300000303000002920000085
:102e9c00746f000020310000323200006b500000d3
:102eac006120000028300000783000004646000009
:102ebc00462900000d0a00000020000031320000fd
:102ecc002d62000069740000207200006573000020
:102edc002e20000073630000616c0000696e00001e
:102eec0067200000667200006f6d0000203100004a
:102efc0025520000482000002830000078300000e7
:102f0c003043000036290000207400006f200000c0
:102f1c0039390000255200004820000028300000fc
:102f2c007830000043430000352900000d0a0000f2
:102f3c0000200000313400002d6200006974000094
:102f4c0020720000657300002e20000073630000e7
:102f5c00616c0000696e0000672000006672000062
:102f6c006f6d0000202d000034300000b0430000d5
:102f7c00202800003078000030300000363200008d
:102f8c0029200000746f0000203100003230000056
:102f9c00b0430000202800003078000033440000cb
:102fac0042420000290d00000a0000000d0a00003a
:102fbc0054720000616e00007364000075630000c1
:102fcc00657200002000000031200000746f0000ca
:102fdc00203300000d0a000000200000000000005b
:020000040000fa
:102fec00ee0800000e0000000000000000080000c9
:102ffc00a40000000200000050617200616d6500c9
:10300c007465720020697300206e6f007420770065
:10301c0069746800696e200072616e0067652e002d
:10302c00200020000a0d000056534d002050720065
:10303c006f74650075732000372c2000647350008a
:10304c004943330033200a000d004c0061626300d9
:10305c00656e740065722000456c650063747200c7
:10306c006f6e6900637320004c7464002e200d0099
:10307c000044410054412000524543004f5244004b
:10308c004552200056312e00302e20002874790035
:10309c0070652000683c6300723e2000666f720011
:1030ac00206120006c69730074206f006620610041
:1030bc00766169006c6162006c652000636f6d0065
:1030cc006d616e00647329000d000d000a3e200036
:1030dc0000000000040900000200000002000000d3
:1030ec0000000000000900000200000002000000c7
:1030fc0004090000020900000200000000000000aa
:10310c00a40800004a00000002000000000021009a
:10311c0015110e000d0c0b000b0a0a000909090011
:10312c000909080008080800080808000707070034
:10313c0007070700070707000707070007303100dc
:10314c00323334003536370038396100626364003d
:10315c006566670068696a006b6c6d006e6f700065
:10316c007172730074757600777879007a000000bc
:10317c00fc08000004000000020000000000000039
:08318c0000000000000000003b
:020000040000fa
:043194000000fe0039
:00000001FF
