:020000040000FA
:0600000000008A01102837
:020008000900ED
:04000A00003400348A
:10002000870183160313870103308500D7308100D1
:100030000E309F0083120313C1309F001F15A101D2
:100040003520A0012F20200F272822082C28200847
:1000500001072208031CD5398700352022281F19E3
:1000600008001E081F15A00008000730090521061A
:1000700003190800A106851C412800308A0053306E
:10008000442800308A004B30210703188A0A4A208E
:10009000A2000800820000341234093418342434D9
:1000A0000634213400340034213406342434183426
:0600B00009341234003493
:02400E00F23D81
:00000001FF
