:020000040000FA
:0400000000000C28C8
:020008000828C6
:04000A00003400348A
:10001000A91629170B1109008701860183160313FE
:1000200087010B308500FE308600D73081008B16AB
:1000300004309F008312031381309F002130900011
:10004000FF30950096000B309700A1010630A2000A
:10005000A901B301A0010B118B170C19212129143F
:10006000291A372821080107031C29102F21F22003
:100070003A202D280F30A00500308A004330200799
:1000800003188A0A820053285D2863286C28872871
:100090008E2896289D28B828C928D028E228E92843
:1000A000E928E928E92821302306031D08001F1547
:1000B00008309F06A00A291308001F1908001E080F
:1000C000A500A00A080024302306031D08001F1500
:1000D00010309F06A00A08001F1908001E08803A69
:1000E000A6002507A61F7728031C003979280318C6
:1000F000FF30A100031982282912FD3C031C291698
:10010000A00A0800B301C7309F05A0010800123003
:100110002306031D08003E21A00A0800291C080030
:100120000614ED201F150610A00A08001F1908006C
:100130001E08AA00A00A2913080018302306031D70
:100140000800291F0800A11FA728291C0800171054
:100150001608AD00AF001508AE00B0000310AF0CDC
:10016000B00C03102F0C9600300C9500A00A08006C
:100170000C1D080029142F210614ED201F15061050
:100180002F089607300895070318960A0C11A00A45
:1001900008001F1908002A0C1E02AB00A00A080064
:1001A0000C1D080029142F210614ED201F15061020
:1001B00018309F062D0896002E0895000C11171474
:1001C000A00A08001F1908002A0C1E02AC00A0019A
:1001D0000800C7309F05A00108000E30B200B20B26
:1001E000EF280800A91E0800A11FF828291C0800F4
:1001F000A912B10B0800A9142508C13E031CA910BF
:10020000AB1F0C298030B300FF30B100A91C1E29A0
:10021000A40F0800A4030800AC1B18294030B30049
:10022000C830B100A91C1E29A40B0800A40A0800AC
:10023000C030B300C830B100A91808002508A400D8
:100240000800171C08000C1101308A00220B292914
:100250000630A200363E03188A0A3521A30023087F
:10026000291CD53933048700080082000034093482
:1002700018341234063424342134003443219600D7
:100280004A219500080001308A00513024070318E4
:100290008A0A820002308A005130240703188A0A31
:1002A0008200FD34FD34FD34FD34FD34FD34FD3475
:1002B000FD34FD34FD34FD34FD34FD34FD34FD34B6
:1002C000FD34C03498347E346C345E3453344B3453
:1002D00044343E343934353431342E342B342934DB
:1002E000273425342334213420341F341D341C3466
:1002F0001B341A341934183418341734163415349E
:1003000015341434143413341334123412341134B5
:1003100011341034103410340F340F340F340E34C1
:100320000E340E340E340D340D340D340D340C34C3
:100330000C340C340C340B340B340B340B340B34C2
:100340000B340A340A340A340A340A340A340A34BC
:1003500009340934093409340934093409340934B5
:1003600008340834083408340834083408340834AD
:1003700008340834073407340734073407340734A3
:100380000734073407340734073407340734073495
:10039000063406340634063406340634063406348D
:1003A000063406340634063406340634063406347D
:1003B0000634053405340534053405340534053474
:1003C0000534053405340534053405340534053465
:1003D0000534053405340534053405340534053455
:1003E000053405340434043404340434043404344B
:1003F000043404340434043404340434043404343D
:10040000043404340434043404340434043404342C
:10041000043404340434043404340434043404341C
:10042000043404340434043404340434043403340D
:100430000334033403340334033403340334033404
:1004400003340334033403340334033403340334F4
:1004500003340334033403340334033403340334E4
:1004600003340334033403340334033403340334D4
:1004700003340334033403340334033403340334C4
:1004800003340334033403340334033403340334B4
:1004900003340334033403340334033403340334A4
:1004A000033456345634563456345634563456344F
:1004B00056345634563456345634563456345634EC
:1004C000563425349634893415345334AD343034AD
:1004D00043348134A4347C34E234BD34F734813481
:1004E0004D3452348834E8346C341034D034A93468
:1004F00098349A34AE34D234043443348E34E334F2
:100500004334AB341B349334123498342334B4342E
:100510004B34E63485342934D1347C342B34DD3407
:1005200092344A340534C234823444340834CF34EB
:10053000973461342D34FB34CA349B346D344034E9
:100540001534EC34C3349C34753450342C340834B2
:10055000E634C534A4348434663447342A340D3444
:10056000F134D634BB34A13488346F3457343F343B
:1005700028341134FB34E534D034BB34A6349234FF
:100580007F346C34593446343434223411340034DA
:10059000EF34DF34CE34BF34AF34A03491348234FE
:1005A00073346534573449343C342E342134153493
:1005B0000834FB34EF34E334D734CB34C034B534AF
:1005C000A9349E34943489347E3474346A3460346B
:1005D00056344C3442343934303426341D341434D7
:1005E0000B340334FA34F234E934E134D934D134FD
:1005F000C934C134B934B134AA34A2349B349434EC
:100600008D3485347E34773471346A3463345D34A8
:1006100056345034493443343D34363430342A343B
:1006200024341E34193413340D3407340234FC34AA
:10063000F734F134EC34E734E234DC34D734D234F8
:10064000CD34C834C334BE34BA34B534B034AB342A
:10065000A734A2349E349934953490348C34883441
:1006600083347F347B34773473346E346A34663445
:1006700062345E345B34573453344F344B34483433
:10068000443440343D343934353432342E342B3410
:100690002734243421341D341A34173413341034DD
:0206A0000D3417
:02400E00F23D81
:00000001FF
