:020000040000FA
:08000000000001308A00002914
:08000800A0000308A100830120
:0A00100021088300A00E200E090055
:100200008A018316083090077A308F0041308100D0
:100210008312831649389F0083164A309F00183096
:100220009B0007309C009D01831294018B01E030FC
:100230008500003086000F308700891583160F3047
:10024000850000308600D0308700F73089008312A7
:100250001130A20001308A00863084000F30800403
:100260006430AA001430AB000F30060522060319D3
:1002700043290F3006052306031943291430AB0028
:100280000F300605A3000A30F126AB0303194C29F1
:10029000AA0B34292208A300230822060319532994
:1002A00006308A00DE2601308A002308A200592188
:1002B0002A298207002A002B002B362B412B4D2B9D
:1002C000592B652B002C412C412C612C6B2C772C4D
:0402D000832C842CCB
:100400008316483081008312C326F830A4007F3061
:10041000A500B50102308A0035081C22EA006A0FE7
:10042000142A1130A30000347522882288228822E1
:10043000C830F126B50A0A2A820701340434083488
:1004400000340734093402340734053402340734E5
:02045000FF3477
:04045200003400343E
:10046000820700003F3457346C347A347F347A3456
:100470006C3457343F342734123404340034043499
:100480001234273482078534B334B334B334A234FE
:10049000A234A234933493349334B334A2349334D7
:1004A00085348534853482075E3467345E34553450
:1004B00067345E34553467345E3455344D344D34CE
:1004C0004D344D3467345534820743343C3443341F
:1004D0004A343C3443344A343C3443344A3452344E
:1004E0005234523452343C344A3402308A00103090
:1004F000E200E6001F30E300E7000108E100E5004C
:100500000F30EA056A084222E0006A085322E4003C
:100510006A086422E9006108010260020318992A4E
:100520006008E107E20B962A1030E20062083022F0
:10053000E3006508010264020318AA2A6408E507BB
:10054000E60BA72A1030E600E90BA72A003466085C
:100550003022E70067086307E800250603198B2AA5
:0C056000680EA500F038A40000268B2ACD
:10060000C326A303FA30AA007F3023187C30A4004D
:10061000FF30A50000260430F126BF30FA26FF3057
:100620002318FC30A400FF30A50000260430F1267A
:10063000BF30FA26703023183430A4000030A500F3
:1006400000260430F126BF30FA260000F0302318CF
:10065000F430A4000030A50000260430F126BF309D
:10066000FA26AA0B042B230AA30A0800C326A50115
:10067000A030A4000026A4130026000063000000A0
:100680000334C326A501F830A40000267030A4006E
:10069000002601303326B3260434C326A501F830E2
:1006A000A40000267030A400002611304E26B32688
:1006B0000534C326A5017030A4000026A501F8303A
:0C06C000A40000267A26B3260634073476
:100800008316413081008312CE2604308A00643082
:100810008100A501A7012030B6003230E9000B1D90
:100820000F2C0B116430810736081F24A4000F26FB
:10083000B60B0F2C2030B600E90B0F2C08348207C2
:1008400000007F349834B034C634DA34E934F534F7
:10085000FD34FF34FD34F534E934DA34C634B034D1
:1008600098347F3466344E343834243415340934A3
:1008700001340034013409341534243438344E340E
:100880006634CE26A303FA30AA00A701FF3023184E
:10089000BF30A400C030A5000F260930F126A130DA
:1008A000FA26A701003023184030A400A5010F2626
:1008B0000930F126A130FA26AA0B452C230AA30AF7
:1008C0000800CE26A501A4010130A7000F260000D4
:1008D000630000000B34CE26A701A5018030A400E0
:1008E0000F26C730FA2602303326B3260C34CE2624
:1008F000A701A5018030A4000F26C730FA261A30C0
:0A0900004E26B3260D340E340734E2
:100C000087102408930025088C1D042E8C11930056
:100C10008C1D082E87148C118512851608009130C2
:100C200084008C1100142F26903093000A30FA268D
:100C3000001B312E270893000A30FA26001B312EA4
:100C4000240893000A30FA26001B312E2508930051
:100C50000A30FA26001B312E00152F260800302EF0
:100C60000800CE260F2EB400B40DB40D340D383963
:100C700041389F0083165A309F0018309B009C011A
:100C80009D0183121F151F19432E1E08AF008316E6
:100C90001E088312B000B1011F100800B101B0019D
:100CA000AF000310AF0CB00C8316D030870080303B
:100CB00094008312303094008C112F0893008C1D07
:100CC0005F2E8C11300893008C1D642E13081F3981
:100CD000AF008C1193018C1D6B2E1308B0008C118A
:100CE000B10107140310B00DAF0DB00DAF0DB00D75
:100CF000AF0D08008316D030870080309400831237
:100D0000303094008C11AF01B001B10107100330F5
:100D1000F1260714FA30F1260710023093008C1DDB
:100D20008F2E1308AF008C11013093008C1D962E6E
:100D30001308B0008C11003093008C1D9D2E1308F9
:100D4000B1008C1107140800831619309900E530A2
:100D500098008312981898011A081A08D030980041
:100D6000983084000800A4262F0800140C1EB62E0C
:100D70009900300800100C1EBB2E990031080C1E83
:100D8000BF2E9900080094018316D0308700803070
:100D900094008312303094008C11080094011830B4
:100DA000870483168704403094006030910004303B
:100DB00093008312383094008C110800940198013C
:100DC00087308700873084003F3080050830AC00D2
:100DD000FA30F126C0308706AC0BE82EC030800414
:100DE0000800AE00F930AD006400AD0BF42EAE0B80
:100DF000F22EFA34AD0064000000AD0BFB2EFA3485
:02400E00D83F99
:02401000FC3F73
:00000001FF
