:020000040000FA
:060000009AEF0CF0120063
:0600080016EF00F01200EB
:02002A000000D4
:04002C00DACFE4FF44
:10003000E2CFDAFFE9CFE4FFEACFE4FFF6CFE4FF57
:10004000F7CFE4FFF5CFE4FFF3CFE4FFF4CFE4FF15
:10005000FACFE4FF00EE1CF0100EE80403E3EECF4D
:10006000E4FFFBD700EE00F01C0EE80403E3EECF44
:10007000E4FFFBD7E652828A29D806DA41DA8BDA26
:100080009E92829AE55200EE1BF01C0EE80403E3F8
:10009000E5CFEDFFFBD700EE2BF0100EE80403E3F5
:1000A000E5CFEDFFFBD7E5CFFAFFE5CFF4FFE5CFD6
:1000B000F3FFE5CFF5FFE5CFF7FFE5CFF6FFE5CF9F
:1000C000EAFFE5CFE9FFE5CFDAFF1100000190512B
:1000D000040B01E1D0D09051080B01E0CCD090B1DD
:1000E00065D09951B75D9A51B85909E2A551B52724
:1000F000A651B623A751B723A851B82305D0C92BC1
:10010000000ECA23CB23CC23B5C0A1F0B6C0A2F009
:10011000B7C0A3F0B8C0A4F0B55102E1800EB61983
:1001200006E1B7B103D0A32B000EA42309D0000E23
:10013000D880B555800EB65503E2A32B000EA4233C
:10014000A3C000F0A4C001F0026A036A0050B95FC6
:100150000150BA5B0250BB5B0350BC5B90A30FD055
:10016000A3C000F0A4C001F0026A036A0050BD5FA2
:100170000150BE5B0250BF5B0350C05B07D0A35170
:10018000BD27A451BE23000EBF23C023BC35000EE3
:10019000BC1909E6D880000EB955000EBA55000EFC
:1001A000BB55000EBC5501E3908164D0C951CA1102
:1001B000CB11CC1106E0C907000ECA5BCB5BCC5B50
:1001C00025D0B551B611B711B81110E0A551B55FE2
:1001D000A651B65BA751B75BA851B85B800EB815A6
:1001E00004E0B56BB66BB76BB86B10D09151921140
:1001F00004E09107000E925B09D09095C5C0BDF058
:10020000C6C0BEF0C7C0BFF0C8C0C0F0B5C0A1F046
:10021000B6C0A2F0B7C0A3F0B8C0A4F0B55102E1D7
:10022000800EB61906E1B7B103D0A32B000EA423AC
:1002300009D0000ED880B555800EB65503E2A32B29
:10024000000EA42390A30FD0A3C000F0A4C001F01F
:10025000026A036A0050BD5F0150BE5B0250BF5B83
:100260000350C05B07D0A351BD27A451BE23000E8D
:10027000BF23C02317D09051400B14E09051040BC2
:1002800011E189518B5D02E289C08BF08A51D880DF
:100290008B5505E289C08BF090AF909D03D003D8B9
:1002A00000018B2B12000C0E00018B5D45E28B517F
:1002B000080DF3CFE9FFF4CFEAFF000EE926010EA7
:1002C000EA22EECFB9F0EDCFBAF08B51080DF3CFA3
:1002D000E9FFF4CFEAFF000EE926010EEA22020E42
:1002E000E926000EEA22EECF99F0EDCF9AF08B517D
:1002F000080DF3CFE9FFF4CFEAFF000EE926010E67
:10030000EA22040EE926000EEA22EECFA5F0EDCF98
:10031000A6F08B51080DF3CFE9FFF4CFEAFF000EF2
:10032000E926010EEA22060EE926000EEA22EECFA9
:1003300091F0EDCF92F04BD0180E8B5D48E20C0E91
:100340008B5D080DF3CFE9FFF4CFEAFF600EE926DD
:10035000010EEA22EECFB9F0EDCFBAF00C0E8B5DB4
:10036000080DF3CFE9FFF4CFEAFF600EE926010E96
:10037000EA22020EE926000EEA22EECF99F0EDCF36
:100380009AF00C0E8B5D080DF3CFE9FFF4CFEAFF76
:10039000600EE926010EEA22040EE926000EEA228A
:1003A000EECFA5F0EDCFA6F00C0E8B5D080DF3CFD0
:1003B000E9FFF4CFEAFF600EE926010EEA22060EFD
:1003C000E926000EEA22EECF91F0EDCF92F0BAC00E
:1003D000BBF0B9C0BAF0B96BBBAF02D0BC6901D0F9
:1003E000BC6BA86BA6C0A7F0A5C0A6F0A56BBDC04E
:1003F000A1F0BEC0A2F0BFC0A3F0C0C0A4F0A15144
:100400007F0804E2A22B000EA323A423A16BA1C0AA
:10041000BDF0A2C0BEF0A3C0BFF0A4C0C0F0B90E32
:10042000E96E000EEA6EBD51EE24C56FBE51EE209E
:10043000C66FBF51EE20C76FC051EE20C86FBCAF72
:100440000AD09083000EB96DBA1FBA23BB1FBB231D
:10045000BC1FBC2301D09093D890BC33BB33BA33BC
:10046000B933B56BB66BB76BB86BC96BCA6BCB6B7B
:10047000CC6B9091A551A611A711A81104E0995138
:100480009A1101E0908512009DC09BF09EC09CF0E7
:1004900000019F519B5FA0519C5BCAEC0BF0F3CF16
:1004A0009FF0F4CFA0F0ABEC0BF0F3CF9DF0F4CFC6
:1004B0009EF000019F519B27A0519C239D519B5F63
:1004C0009E519C5B9BC000F09CC001F0026A036AD5
:1004D00001AE02D002680368080E1F0B07E0D89037
:1004E0000036013602360336E806F9E10050000115
:1004F000C1270150C2230250C3230350C42312005A
:10050000BDC0A1F0BEC0A2F0BFC0A3F0C0C0A4F0A7
:100510000001A16BC10EE96E000EEA6EEE50A15D06
:10052000A96FEE50A259AA6FEE50A359AB6FEE50CF
:10053000A459AC6FAAC0A9F0ABC0AAF0ACC0ABF094
:10054000ABAF14D0AC69D880AC51FF0A08E6000EFE
:10055000A95D800EAA59FF0EAB59FF0EAC5905E2FA
:10056000A96B800EAA6FAB69AC6914D0AC6BAC35CB
:10057000000EAC1909E6D880FF0EA9557F0EAA55CA
:10058000000EAB55000EAC5505E2A9697F0EAA6FAF
:10059000AB6BAC6B1200000190B708D0A951AD272E
:1005A000AA51AE23AB51AF23AC51B02393C00CF092
:1005B00094C00DF00E6A0F6A0DAE02D00E680F687F
:1005C000A9C008F0AAC009F00A6A0B6A09AE02D0F5
:1005D0000A680B6808C020F009C021F00AC022F0A8
:1005E0000BC023F00CC025F00DC026F00EC027F084
:1005F0000FC028F0FFEC0AF01CC004F01DC005F08D
:100600001EC006F01FC007F095C010F096C011F094
:10061000126A136A11AE02D012681368ADC020F0DE
:10062000AEC021F0AFC022F0B0C023F010C025F062
:1006300011C026F012C027F013C028F0FFEC0AF01A
:1006400004501C24006E05501D20016E06501E2013
:10065000026E07501F20036E97C018F098C019F063
:100660001A6A1B6A19AE02D01A681B689BC014F084
:100670009CC015F0166A176A15AE02D01668176886
:1006800014C020F015C021F016C022F017C023F0CE
:1006900018C025F019C026F01AC027F01BC028F09A
:1006A000FFEC0AF000501C240001B16F01501D2026
:1006B000B26F02501E20B36F03501F20B46FB4AF4F
:1006C0000CD0FF0EB45D03E3800EB31505E1B16BF2
:1006D000B26B800EB36FB4690AD0B45103E1B35169
:1006E0007F0805E2B169B2697F0EB36FB46BB2C027
:1006F000B1F0B3C0B2F09097B23504E2B151F40852
:10070000010EB25505E2F40EB16F010EB26F908783
:10071000D880B25104E70C0EB15DFE0EB25905E26D
:100720000C0EB16FFE0EB26F9087020EB227B1C0F1
:10073000E6FFB2C0E6FF37EC0BF0E552E5521200DF
:100740000001896B8A6B8B6B8C6B8D6B8E6B8F6BE7
:10075000909190979095909D909F9093916B926BB4
:10076000AD6BAE6BAF6BB06B996B9A6B9B6B9C6B0D
:100770009D6B9E6B9F6BA06BA16BA26BA36BA46B1D
:10078000A56BA66BA76BA86BA96BAA6BAB6BAC6BCD
:10079000B16BB26BB36BB46BB56BB66BB76BB86B5D
:1007A000B96BBA6BBB6BBC6BBD6BBE6BBF6BC06B0D
:1007B000C16BC26BC36BC46BC56BC66BC76BC86BBD
:1007C000C96BCA6BCB6BCC6B8F6B080EE66EE66A9F
:1007D000E66A800EE66E000EE66E3BEC0CF0006EF4
:1007E000050EE15E0050070EE66E2E0EE66E66EC1C
:1007F0000BF0E552E552E66884EC0CF0E552CC0EC5
:10080000E66E05EC0CF0E552E66A020EE66E37EC99
:100810000BF0E552E552F19E826A836A846ADB0E30
:10082000946E956A966A0F0EAF6E200EAC6E900EA7
:10083000AB6EED0EE66E180EE66EBEEC08F0E552FD
:10084000E5524C0EE66E190EE66EBEEC08F0E5526F
:10085000E552C00EE66E080EE66E20EC0CF0E55296
:10086000E552310EC86E7A0EE66E43EC08F0E552A2
:10087000F3CF93F0F4CF94F00001956B966B7E0E5E
:10088000E66E43EC08F0E552F3CF97F0F4CF98F022
:10089000D66AD76ACE6ACF6A2F0EE66EE9EC0BF005
:1008A000E552430EE66E8AEC0BF0E55200018B6BCD
:1008B0000C0E8B5D2FE28C6B040E8C5D29E28C514B
:1008C000E824006E8B51080DF3500024886F88C017
:1008D000E6FFD9DBE552F3CF02F0F4CF03F00001DD
:1008E0008B51080DF3CF00F0F4CF01F0000E00267D
:1008F000010E01228C51020D0050F324E96E0150CB
:10090000F420EA6E02C0EEFF03C0EDFF8C2BD4D7BB
:100910008B2BCED701013C0E606F730E616F626B43
:10092000100E636F646B080E656FB00E666F040E79
:10093000676FC40E686F8C0E696F6A6B040E6B6F05
:100940006C6B020E6D6FB00E6E6F040E6F6FE10E6A
:10095000706F020E716F726B100E736F746B080EF6
:10096000756FB00E766F040E776FE10E786F020E22
:10097000796F7A6B100E7B6F7C6B080E7D6FB00EFB
:100980007E6F040E7F6FE20E806F020E816F826BAE
:10099000100E836F846B080E856FB00E866F040E89
:1009A000876FE20E886F020E896F8A6B100E8B6F55
:1009B0008C6B080E8D6FB00E8E6F040E8F6F7A0EDB
:1009C000906FF40E916F926B040E936F800E946F84
:1009D000956BB00E966F040E976F860E986F0B0E88
:1009E000996F9A6B010E9B6F400E9C6F9D6BB00EC2
:1009F0009E6F040E9F6F7A0EA06FF40EA16FA26B14
:100A0000100EA36FA46B020EA56FB00EA66F040E9E
:100A1000A76F3C0EA86F730EA96FAA6B040EAB6F85
:100A2000AC6B020EAD6FB00EAE6F040EAF6F3C0E2E
:100A3000B06F730EB16FB26B080EB36FB46B020E72
:100A4000B56FB00EB66F040EB76F3C0EB86F730E75
:100A5000B96FBA6B100EBB6FBC6B040EBD6FB00EDE
:100A6000BE6F040EBF6F81B802D00001908F81BAB3
:100A700009D000010C0E896F0D0E8A6F0C0E8B6F62
:100A8000908D15D081BC09D000010E0E896F120E19
:100A90008A6F0E0E8B6F908D0AD081BE08D0000138
:100AA000120E896F130E8A6F120E8B6F908DF28C5F
:100AB000F28E120045DE0400B4EC0CF0AFEC0CF04A
:100AC000000901E0FBD7836A040E8416C450006E4F
:100AD000016A013404E20050E108000E015403E20F
:100AE000030E84128368C450006E016A013404E26C
:100AF0000050C808000E015403E2848083683CD093
:100B0000C450006E016A013404E20050AF08000EC8
:100B1000015402E2836830D0C450006E016A01348F
:100B200004E200509608000E015403E27F0E836E2B
:100B300023D0C4507D0803E23F0E836E1DD0C45005
:100B4000640803E21F0E836E17D0C4504B0803E203
:100B50000F0E836E11D0C450320803E2070E836E6D
:100B60000BD0C450190803E2030E836E05D0C450A5
:100B7000000802E2010E836E9EAA67D0AECF8FF00E
:100B8000AE500D0A19E0210A01E035D060D8080EF8
:100B9000E66EE66AE66A800EE66E000EE66E3BECF6
:100BA0000CF0006E050EE15E005000018D6B00013F
:100BB0008E2B8FC0ADFF49D04AD8080EE66EE66A8C
:100BC000E66A800EE66E000EE66E3BEC0CF0006E00
:100BD000050EE15E005000018D6B00018E6B00017F
:100BE0008B6B00018C6B4C0EE66E190EE66EC6DA4E
:100BF000E552E5522AD000018D51EA6A800FE96E74
:100C0000000EEA228FC0EFFF00018D2B00018D51F5
:100C1000070818E24C0EE66E190EE66EAFDAE552E2
:100C2000E552080EE66EE66AE66A800EE66E000E93
:100C3000E66E3BEC0CF0006E050EE15E005000012C
:100C40008D6B02D08FC0ADFF00D035D712000001F0
:100C50008E5153E18051570A33E0100A2EE0140AF6
:100C60002AE01F0A25E0080A20E00D0A1BE0190A05
:100C700016E0040A11E0150A0CE0170A07E00E0A54
:100C800003E0805138E030D08C6B36D0010E8C6F91
:100C900033D0020E8C6F30D0030E8C6F2DD0500EDF
:100CA0008C6F2AD0490E8C6F27D0440E8C6F24D0C5
:100CB0004C0E8C6F21D0909D1FD0470E8C6F1CD096
:100CC00084A409D0E40EE66E180EE66E57DAE552FB
:100CD000E552849408D0DA0EE66E180EE66E4EDA0F
:100CE000E552E552848408D0550EE66E190EE66E84
:100CF00045DAE552E55200D01BD18E0501E077D0F0
:100D0000040E8C5D0BE2800EE66E000EE66EDDECEE
:100D100008F0E552E55200018B6F68D08C514C0A07
:100D200059E00B0A4CE0030A33E00D0A1AE0190AF5
:100D300001E05BD0800EE66E000EE66E36EC09F048
:100D4000E552E552F3CF93F0F4CF94F093C0E6FF71
:100D500094C0E6FF7A0EE66EECD8E552E552E55215
:100D600045D0800EE66E000EE66E36EC09F0E552D8
:100D7000E552F3CF95F0F4CF96F095C0E6FF96C01C
:100D8000E6FF7C0EE66ED5D8E552E552E5522ED050
:100D9000800EE66E000EE66E36EC09F0E552E55286
:100DA000F3CF97F0F4CF98F097C0E6FF98C0E6FF36
:100DB0007E0EE66EBED8E552E552E55217D0800EA3
:100DC000E66E000EE66EDDEC08F0E552E55200013D
:100DD000896F0CD0800EE66E000EE66EDDEC08F03A
:100DE000E552E5520001896F01D000D0A1D0020E7A
:100DF0008E5D01E09DD090BD9BD0040E8C5D73E2B2
:100E00000C0E8B5D48E2800EE66E000EE66E36EC50
:100E100009F0E552E552F3CF02F0F4CF03F0000100
:100E20008B51080DF3CF00F0F4CF01F0000E002637
:100E3000010E01228C51020D0050F324E96E015085
:100E4000F420EA6E02C0EEFF03C0EDFF8C51E824EF
:100E5000006E8B51080DF3500024886F8B51080DE4
:100E6000F3CF00F0F4CF01F0000E0026010E0122B6
:100E70008C51020D0050F324E96E0150F420EA6E0B
:100E8000EECFE6FFEFCFE6FF88C0E6FF52D8E5528F
:100E9000E552E55227D0180E8B5D24E2800EE66EF7
:100EA000000EE66E36EC09F0E552E552F3CF02F0A3
:100EB000F4CF03F00C0E00018B5D080DF3CF00F0B2
:100EC000F4CF01F0600E0026010E01228C51020DBC
:100ED0000050F324E96E0150F420EA6E02C0EEFFE8
:100EE00003C0EDFF25D08C514C0A12E00B0A01E043
:100EF0001ED0800EE66E000EE66EDDEC08F0E552C8
:100F0000E55200018A6F89C08BF0909F908D10D0C0
:100F1000800EE66E000EE66EDDEC08F0E552E5525E
:100F200000018A6F89C08BF0908F908D01D000D026
:100F30001200D9CFE6FFE1CFD9FF040EE126FC0E67
:100F4000DBCFDEFFDBCFDDFF020EDB6A0A0EF36EC6
:100F5000030EF3CFDBFFA00EE66EB5EC0AF0E55210
:100F6000E76E020EE7CFDBFF030EDB06020EDB505F
:100F70000EE0030EDBCF00F0000EE76E0018E8AEC7
:100F800002D0003403D0E750D8800054E4E30A0EC6
:100F9000F36E030EF3CFDBFFDFCFE6FFFE0EDBCFFA
:100FA000E6FFA00EE66E16EC0AF0E552E552E552B9
:100FB000E76E020EE7CFDBFF030EDB06020EDB500F
:100FC0000EE0030EDBCF00F0000EE76E0018E8AE77
:100FD00002D0003403D0E750D8800054DDE30A0E7D
:100FE000F36E030EF3CFDBFFA00EE66EB5EC0AF056
:100FF000E552E76E020EE7CFDBFF030EDB06020EC3
:10100000DB500EE0030EDBCF00F0000EE76E0018A1
:10101000E8AE02D0003403D0E750D8800054E4E3B7
:101020000A0EF36E030EF3CFDBFF010EDBCFE6FFFC
:10103000FE0EDB28E66EA00EE66E16EC0AF0E55218
:10104000E552E552E76E020EE7CFDBFF030EDB064B
:10105000020EDB500EE0030EDBCF00F0000EE76E59
:101060000018E8AE02D0003403D0E750D880005416
:10107000DCE3040EE15C02E2E16AE552E16EE55276
:10108000E7CFD9FF1200D9CFE6FFE1CFD9FF050E98
:10109000E1260A0EF36E040EF3CFDBFFFE0EDBCF6C
:1010A000E6FFA00EE66EABEC09F0E552E552020E4B
:1010B000F3CFDBFF030EF4CFDBFF040EDB06030EE2
:1010C000DB500EE0040EDBCF00F0000EE76E0018E0
:1010D000E8AE02D0003403D0E750D8800054DEE3FD
:1010E000030EDB5002E0DF6A03D0020EDB50DF6E3E
:1010F0000A0EF36E040EF3CFDBFFFE0EDB28E66E66
:10110000A00EE66EABEC09F0E552E552020EF3CF0D
:10111000DBFF030EF4CFDBFF040EDB06030EDB5018
:101120000EE0040EDBCF00F0000EE76E0018E8AE14
:1011300002D0003403D0E750D8800054DEE3030E21
:10114000DB5003E0010EDB6A06D0020EDB50E76ED7
:10115000010EE7CFDBFFDECF00F0DDCF01F000C0F6
:10116000F3FF01C0F4FF050EE15C03E200D0E16A89
:10117000E552E16EE552E7CFD9FF1200D9CFE6FF85
:10118000E1CFD9FFACA2FED7FD0EDBCFF6FFFE0EFE
:10119000DBCFF7FF0800F550AD6EFD0EDBCFF6FF9D
:1011A000DB2AFE0EDBCFF7FF01E3DB2A0800F55058
:0A11B000E9E1E552E7CFD9FF120094
:0611BA00FF0EE3CFEAFF87
:1011C000E552FF0EE3CFE9FFE552E66AD9CFE6FF2D
:1011D000DACFE6FFFD0EE124D96EFF0EE220DA6ED3
:1011E000E66AE66A200EEF5C06E0090EEF5C03E0BB
:1011F000EF6603D02CD0EE50F5D72D0EEF5C03E157
:10120000FF0EE32A03D02B0EEF5C01E1EE502F0E10
:10121000EF6416D03A0EEF6013D0D890FB0EE33691
:10122000FE0EDFCFE3FFD890FB0EE336D890FB0E27
:10123000E336FE0EE350DF26300EEE5CDF26E7D706
:10124000FF0EE3CFE8FFE85202E0DF1EDF2AE5529F
:10125000E552FF0EE3CFDAFFE552FF0EE3CFD9FFF1
:10126000E552FF0EE3CFE8FFE6521200FF0EE3CF98
:10127000EAFFE552FF0EE3CFE9FFE552E66AE66AD0
:10128000D9CFE6FFDACFE6FFFC0EE124D96EFF0EE0
:10129000E220DA6EE66AE66AE66A200EEF5C06E0B5
:1012A000090EEF5C03E0EF6603D03FD0EE50F5D7B8
:1012B0002D0EEF5C03E1FF0EE32A03D02B0EEF5C53
:1012C00001E1EE502F0EEF6424D03A0EEF6021D0F2
:1012D000D890F90EE336FA0EE336FD0EDECFE3FFCB
:1012E000FE0EDDCFE3FFD890F90EE336FA0EE336BB
:1012F000D890F90EE336FA0EE336FD0EE350DE2603
:10130000FE0EE350DD22300EEE5CDE26000EDD2206
:10131000D9D7FF0EE3CFE8FFE85207E0F90EE31E4E
:10132000E32AFA0ED8B4E306E31EE552E552E5528D
:10133000FF0EE3CFDAFFE552FF0EE3CFD9FFE55210
:10134000E1CFE9FFE2CFEAFFED52ED52EECFF3FF3E
:06135000EFCFF4FF1200D4
:0A135600D9CFE6FFDACFE6FFE1CFC2
:10136000D9FFE2CFDAFFC750040B01E0010E52D8DB
:10137000FAE1C580C5B0FED7A1B639D0FD0E4FD871
:1013800020E1C750040B01E0010E44D8FAE1C5BCCE
:1013900032D0FC0E44D815E1C750040B01E0010E19
:1013A00039D8FAE1C5BC25D0C582C5B2FED7A1B6F1
:1013B0001ED0FD0EDB28E66E55EC0CF0E552000960
:1013C00002E0FD0E19D0C750040B01E0010E22D837
:1013D000FAE1C5BC0ED0C586C5B6FED7C58AC5889C
:1013E000C5B8FED7C584C5B4FED7A1A608D0F3689A
:1013F00004D0FE0E01D0FE0EF36EF46805D0C95085
:10140000016AF36E01C0F4FFE552E5CFDAFFE7CFE2
:10141000D9FF1200006E1F0EC51400101200DBCFA2
:0C142000E6FF55EC0CF0E552000912004C
:04142C00D9CFE6FF2F
:10143000DACFE6FFE1CFD9FFE2CFDAFFC750040BE6
:1014400001E0010E3ED8FAE1C580C5B0FED7A1B6D5
:1014500028D0FD0E2FD816E1C750040B01E0010E75
:1014600030D8FAE1C5BC10D0FC0E24D80BE1C7502F
:10147000040B01E0010E25D8FAE1C5BC05D0FB0E36
:1014800019D804E0FD0E10D0FE0E0ED0C750040B8C
:1014900001E0010E16D8FAE1C584C5B4FED7A1A6B5
:1014A00002D0FF0E01D0000EE552E5CFDAFFE7CF04
:1014B000D9FF1200DBCFE6FF55EC0CF0E552000936
:0C14C0001200006E1F0EC5140010120078
:0414CC002A0EF66E80
:1014D000000EF76E000EF86E00010900F550D26F95
:1014E0000900F550D36F03E1D26701D03DD0090068
:1014F000F550CD6F0900F550CE6F0900F550CF6F54
:1015000009000900F550E96E0900F550EA6E09007E
:1015100009000900F550D06F0900F550D16F09009E
:101520000900F6CFD4F0F7CFD5F0F8CFD6F0CDC084
:10153000F6FFCEC0F7FFCFC0F8FF0001D05302E1A5
:10154000D15307E00900F550EE6ED007F8E2D1075D
:10155000F9D7D4C0F6FFD5C0F7FFD6C0F8FF000119
:0A156000D207000ED35BBFD71200C4
:06156A00D9CFE6FFDACF45
:10157000E6FFE1CFD9FFE2CFDAFFC750040B01E06D
:10158000010E38D8FAE1C580C5B0FED7A1B621D08A
:1015900029D811E1C750040B01E0010E2BD8FAE164
:1015A000A1B617D0C5AC10D0C582C5B2FED7A1B6C2
:1015B00010D018D802E0FD0E0FD0C750040B01E088
:1015C000010E18D8EFE0F9D7C584C5B4FED7A1A69F
:1015D00002D0FF0E01D0000EE552E5CFDAFFE7CFD3
:1015E000D9FF1200FD0EDBCFE6FF55EC0CF0E55203
:0E15F00000091200006E1F0EC514001012003C
:0215FE0020507B
:101600002502F3CF1CF0F4CF1DF02602F3501D2667
:10161000000EF4201E6E20502702F3501E26000EEE
:10162000F4201F6E20502802F3501F26215025025F
:10163000F3501D26F4501E22000E1F2221502602B8
:10164000F3501E26F4501F2221502702F3501F266C
:1016500022502502F3501E26F4501F22225026024B
:0E166000F3501F2623502502F3501F261200C0
:02166E00D9CFD2
:10167000E6FFDACFE6FFE1CFD9FFE2CFDAFFE652AD
:10168000E652FC0EDBCF00F0FD0EDBCF01F0060EC4
:10169000D89000360136E804FBE100C0DEFF01C04F
:1016A000DDFF010EDB50BE6EDF50E840E8403F0B2F
:1016B000300B006ECF0EBD140010BD6EE552E5522A
:0C16C000E552E5CFDAFFE7CFD9FF1200BA
:0416CC00D9CFE6FF8D
:1016D000DACFE6FFE1CFD9FFE2CFDAFFC26AC16A13
:1016E000FD0EDB50C16EFD0EDB50040DF350C00B40
:1016F000C26EFC0EDB50380BC212FC0EDBAE03D008
:101700009E9C9D8CF28CC280E552E5CFDAFFE7CF3C
:04171000D9FF1200EB
:0C171400D9CFE6FFDACFE6FFE1CFD9FF26
:10172000E2CFDAFFFD0EDB507E0BCD6EFD0EDBACA3
:1017300002D0CD8E01D0CD9ECF6ACE6A9E90DBAE18
:1017400002D09D8001D09D90CD80E552E5CFDAFF9B
:06175000E7CFD9FF1200F3
:0A175600D9CFE6FFDACFE6FFE1CFBE
:10176000D9FFE2CFDAFFE652E652CE50DF6E010E2D
:10177000CFCFDBFFDECF00F0DDCF01F000C0F3FF05
:1017800001C0F4FFE552E552E552E5CFDAFFE7CFBD
:04179000D9FF12006B
:0C179400D9CFE6FFDACFE6FFE1CFD9FFA6
:1017A000E2CFDAFFE652E652D650DF6E010ED7CF17
:1017B000DBFFDECF00F0DDCF01F000C0F3FF01C0A2
:1017C000F4FFE552E552E552E5CFDAFFE7CFD9FF66
:0217D000120005
:0E17D200D9CFE6FFDACFE6FFE1CFD9FFE2CFB5
:1017E000DAFFFD0EDB507F0BD56ED76AD66AF29416
:1017F000FD0EDBAE02D0F28A01D0F29AD58EE55210
:0A180000E5CFDAFFE7CFD9FF1200B1
:06180A00D9CFE6FFDACFA2
:10181000E6FFE1CFD9FFE2CFDAFFFD0EDB50FB0B95
:10182000CA6ECC6A9E92FD0EDBAE02D09D8201D0C4
:101830009D92CA84E552E5CFDAFFE7CFD9FF1200C7
:10184000D9CFE6FFDACFE6FFE1CFD9FFE2CFDAFF6B
:101850003F0EC716C66AC56AFD0EDB50C612FC0EE7
:10186000DB50C71294869488C68AE552E5CFDAFF2A
:06187000E7CFD9FF1200D2
:0A187600FE0EE3CFE9FFFF0EE3CF03
:10188000EAFFE9CFF3FFEACFF4FFFB0EE35003E1F9
:10189000FC0EE35009E0FB0EE30602E2FC0EE30659
:0A18A000FD0EE350EE6EF1D71200CA
:0618AA00D9CFE6FFDACF02
:1018B000E6FFE1CFD9FFE2CFDAFFFD0EDB50C96EC4
:1018C000C6AE02D0FF0E03D0C7B0FED7000EE55261
:0A18D000E5CFDAFFE7CFD9FF1200E1
:0618DA000D0A50574D20DD
:1018E0004F6666000D0A50574D204F6E000D0A508E
:1018F00049433138433435322044432053657276AE
:071900006F6D6F746F720040
:08190800D9CFE6FFDACFE6FFBC
:10191000E1CFD9FFE2CFDAFF0C0EBD6ECA94FD0E07
:10192000DB50CB6E9494CA84E552E5CFDAFFE7CF63
:04193000D9FF1200C9
:0C19340015EE00F025EE00F0F86A2B9C88
:0C19400066EC0AF05AEC05F0FDD712002E
:04194C000A0D5245E9
:0E1950004144593E000A0D4552524F522100AB
:02195E00C25075
:08196000040B01E0010E12006E
:04196800C284120023
:00000001FF
