:020000000528D1
:08000800212803018500860098
:1000100083161F30850001308600831290019015F1
:10002000003093000030920000309100940195015F
:10003000CE20BF20B020DD2090308B0075204420E2
:100040001E28940A1408193C031D41289401100825
:10005000083A9000DD201008901D4128910A1108EF
:100060003C3C03193528B02041289101B020920A68
:1000700012083C3C03193E28BF2041289201BF20B2
:10008000992090308B00090005185728101800346B
:100090008B13950A101413080C3C031993011308D1
:1000A00090180C3E93009010CE20DD207028101C7C
:1000B00000348B13950A101013080B3C031C68289E
:1000C0009010130803190C3E9300CE20DD207028F9
:1000D00090140C30930203199300CE20DD20702879
:1000E000950B013490308B000134851800348B134C
:1000F000950A10159101B0209011DD204420851D36
:100100008C28051D9528851C7E281011DD20950B57
:10011000013490308B000134920A12083C3C0319E0
:100120009201BF20851D92287E289920051D9628C2
:100130007E281018A92813080C3C03199301930A70
:10014000CE2013080C3C031D080002309006DD2071
:100150000800930A1308183C03199301CE200800E5
:10016000110800219600F0390A388600F03986001F
:10017000160EF0390C388600F03986000800120897
:1001800000219600F03906388600F0398600160EF8
:10019000F03908388600F03986000800130800217D
:1001A0009600F03902388600F0398600160EF039D4
:1001B00004388600F03986000800100E0E388600DC
:0601C000F0398600080082
:100200008A010A143F39820700340134023403346E
:1002100004340534063407340834093410341134F6
:100220001234133414341534163417341834193482
:100230002034213422342334243425342634273402
:10024000283429343034313432343334343435348E
:10025000363437343834393440344134423443341A
:1002600044344534463447344834493450345134A6
:100270005234533454345534563457345834593432
:08028000603461346234633420
:00000001FF
