S123E0007EED72BDECFAFEFFC4A60A815526040EBDF159BDE068FCFFC0F3FFC28F350E4F61
S123E0205FDD3ADD3FDD41BDE0AB7F00197F00187F001DBDE105BDE0BBBDE05BBDEE481A19
S123E04083000026D1DE0ADF2FBDE1277D001926C520D7DE2F6F00DF0A20BBBDE3C38120CB
S123E0602605BDE3CC20F439CEE06E7EE11C0D0A0D0A424153494331312076312E35350DC3
S123E0800A436F7079726967687420313938352D313939302062790D0A476F72646F6E2027
S123E0A0446F7567686D616E0D0A00CEE0B17EE11C0D0A52454144590D0A00C64FDE49BD9C
S123E0C0FEEA810D272B5D272881082610C14F2720098620BDFECD8608BDFECD5C8103265F
S123E0E0067C001C7EF26F812025D4A700085A26CE860DA700DE49DF003981612506817A87
S123E100220284DF39CEE10A20120D0A3E008D00CEE1198D077F001E390A0D00A600270652
S123E120BDFECD0820F639DE4BDF028D3F241936BDE3C3810D322609BDEBA1DE0A08DF2D1C
S123E140397F00198D6E2010BDE3C3810D27F186019719CC000020ECBDE1E27D0019270367
S123E1607EF22EBDEB7ADE0A08DF2D39183C4F36361830DE00A6008D422410A6008D3C2534
S123E180110D18EC0026048612200D31311838DF00398D072AE586017EEA9818EC00050568
S123E1A018E3000518ED00E60008C0304F18E30018ED0039BDE3D44F7EE3D7813025068198
S123E1C03922020D390C398141250E815A230881612506817A22020D390C398DEA240139CC
S123E1E020D9BDE3C3810D274F7F001ABDE37ACEE246BDE3A5251308A60026FBC6043A6D55
S123E2000026EF8602CEE41C2004A601EE02BDE3D7810C2707810A2703BDE37AAD00BDE386
S123E2207ABDE3CA813A2607867ABDE3D720B3810D270586027EEA98867DBDE3D7DC029397
S123E2404BDE4BE7023944415441000CE3FC4C45540001E41C52454144000DEA58524553E4
S123E260544F5245000EE3FB474F535542000FE3F2474F544F0012E3F24F4E54494D450024
S123E28025E8D34F4E4952510026E8D34F4E504143430028E8F34F4E0013E885524554551C
S123E2A0524E0014E3FB49460015E907494E5055540016EA405052494E540003E9D83F00D4
S123E2C003E9D8464F520004E9704E4558540005E9CB53544F500017E3FB454E4457480089
S123E2E01AE3FB454E440018E3FB52454D000AE3FC54524F4E0006E3FB54524F46460007D9
S123E300E3FB5748494C450019EA8B504F4B450008E7FA44494D0009EA58454550001BE8FA
S123E32013504F525441001CE418504F525442001DE418504F525443001EE418504F5254A1
S123E34044001FE418494E425954450023EA8354494D450024EA93524554490027E3FB50A6
S123E360414343000BEA93534C4545500029E3FB5254494D45002AE3FB003CDE005FA60022
S123E380812026045C0820F65D26023839DF00DE02C101270C867FA70008E70008DF0238CE
S123E3A039C67E20F5DC003736A60027128D1BBDE0FAA10027063233DD000C390820EA32C7
S123E3C0330D393CDE00A60038398DF73CDE0008DF0038398D01173C3736DE02A70008DFDD
S123E3E002DC4BC300801A9302323322E586147EEA9886A88DE1BDE16C20D939DE023C867E
S123E400008DD4C6028DBC810D27078DCA8DBD5C20F38DC338E70039C6012004BDE5571618
S123E4208DA8813D270586037EEA9886798DA817183C361830CEE54EBDE4FD24028D98BD6C
S123E440E3C381282622BDE3CC8610BDE3D718A600BDE430BDE3CA8129270586047EEA984F
S123E4608611BDE3D77EE497BDE1BB25088124270481222605BDE66C2009BDE7674D2603B4
S123E480BDE55718E600C100260318A70018A100270586057EEA98BDE3C3810D2740813A55
S123E4A0273C81202738812C2734813B27308129272C18A60081012618BDE4E82518BDE4F8
S123E4C0F325137D001A2705BDE4F820098600200586137EEA984D260986067EEA983118F3
S123E4E03839BDE3D77EE435CEE513BDE4FD2502860039CEE52320F3CEE53820EEBDE3A528
S123E500250D08A60026FB0808A60026F00C39A6010D392B00402D00412A00502F00515CC9
S123E5200052002E414E442E00202E4F522E00212E454F522E0022003C3D00323E3D00335B
S123E5403C3E00353C00303E00313D0034002D00724E4F54007100183C4F363636361830F8
S123E560BDE3C3BDE1C7250586077EEA98BDE0FA18A700BDE3CCBDE3C3BDE1DB2409BDE0B0
S123E580FA18A701BDE3CCBDE5E018A703BDE5EE1A83FFFF260618A603BDE626373618A601
S123E5A003BDE3D73233BDE3D418A6038510271EBDE3CC8610BDE3D78601BDE430BDE3CA2E
S123E5C081292705860E7EEA988611BDE3D7860118E603C502270286023131313118383972
S123E5E0868436BDE3C381283226028B1039DE086D00272EA1002612E60118E100260BE625
S123E6000218E10126048F930839E600C5102704C6052006C1842605C6053A20D386087E22
S123E620EA98CCFFFF39DE0A3CA7000818E600E7000818E601E700088D186F00DF0A9C10FA
S123E640230486092023323393083736BDF2DE32333985102704C602200681842609C6027B
S123E6606F00085A26FA3986087EEA98BDE3C3DE003C81242608BDE3CCBDE6CF2003BDE6EA
S123E680A13686A4BDE3D732BDE3D4DC0030A30017BDE3D738A600BDE3D7085A26F78601C0
S123E6A039183C4F36361830DE00A600BDE1BB25048602202CA600BDE1BB2409BDE19B2A5D
S123E6C0F4860A201CDF0018EC003131183839183C4F36361830DE00A600BDE721250D8650
S123E6E00B7D001D27037EEAEF7EEA98A600BDE72124D218EC0005252405252105251E05A5
S123E700251B18ED00A600BDE0FA1608C030C1092302C0074F18E30018ED0020CF860C20BF
S123E720C0BDE1BB240139BDE0FA81412506814622020D390C39C60286A2BDE3D7DE023CE1
S123E7404FBDE3D7BDE3CABDE3D7BDE3CA8122270F810D2605860D7EEA98BDE3D75C20EAA2
S123E760BDE3D738E70039CEE788BDE3A5250E08A60026FBC6043A6D0026EF4F398636BDBB
S123E780E3D7A601EE026E00464449560001E801434852240002E81F4142530004E81F5266
S123E7A04E440005E81F53474E0006E81F5441420007E81F4144430003E81F43414C4C00EF
S123E7C008E81F5045454B0009E81F454550000AE81F484558320012E81F484558000BE8FE
S123E7E01F504F5254000CE86854494D450011E87F504143430013E87F00DE0209DF02A6AD
S123E80000183CC60137371830C602BDE82E3232183839DE0209DF02A6008D037EE4201801
S123E8203CC60137C60118308D0432183839BDE3D7BDE3C381282705860E7EEA98BDE3CC90
S123E8408610BDE3D718A600180837BDE430335A2707BDEA2D24E120ECBDE3C3812926D816
S123E860BDE3CC86117EE3D7BDE3CABDE0FA81412405862F7EEA98814522F780418B0CBDC4
S123E880E3D78601398601BDE430BDE37ACEE271BDE3A5240D8612BDE3D7BDE37ABDE3F236
S123E8A02018CEE268BDE3A52505860F7EEA98860FBDE3D7BDE37ABDE3F2BDE37ABDEA2D5A
S123E8C0250139BDE37A86A8BDE3D7BDE16CBDE3D420E78601BDE430BDE37ABDEA2D250521
S123E8E086157EEA98BDE37A86A8BDE3D7BDE16C7EE3D48D0220DC8601BDE430BDE37ABDC1
S123E900EA2D24DC7EE37A7C001A8601BDE430BDE37ACEE966BDE3A5250586107EEA988651
S123E92038BDE3D7BDE37ABDE3C3BDE1BB242786A8BDE3D7BDE16CBDE3D4BDE37ACEE96BA4
S123E940BDE3A52501398639BDE3D7BDE37ABDE3C3BDE1BB250586127EEA9886A8BDE3D79C
S123E960BDE16C7EE3D45448454E00454C534500BDE5578101270586037EEA98BDE3CA81E1
S123E9803D26F48679BDE3D78601BDE430BDE37ACEE9C3BDE3A5250586117EEA988637BD3A
S123E9A0E3D7BDE37A8601BDE430BDE37ACEE9C6BDE3A5250139863ABDE3D7BDE37A860114
S123E9C07EE430544F005354455000BDE5578101270586027EEA9839BDE3C38123260D869A
S123E9E078BDE3D7BDE3CCBDE37A201BBDE37ABDE3C3810D2704813A260139BDE3C381220C
S123EA002605BDE73620058601BDE430BDE37ABDE3C3810D27E4813A27E08D1125CE813B4B
S123EA20270586167EEA98867B8D0D20BFBDE3C3812C27020C39867CBDE3D7BDE3CC0D39E7
S123EA408D21BDE37ABDE3C38122260CBDE7368DDC250586157EEA98BDE557BDE37A8DCD3D
S123EA6025F639BDE3C381232701398678BDE3D7BDE3CCBDE37A8601BDE430BDE37A8DAD2F
S123EA8024D1398DDEBDE37A7EE5577C001A86007EE430C6017EE4209718BDE10EDE49A6E6
S123EAA000810D2706BDFECD0820F4BDE110DE0009099C49230EDF00DE49862ABDFECD08F9
S123EAC09C0026F8CEEAE2BDE11CBDE1108D078601971C7EE053CEEAE6BDE11CD6184F7EE4
S123EAE0EB1A5E5E5E004552524F52202320009718BDEAD6CEEB0EBDE11CDC29BDEB1ABDD5
S123EB00E1108601971C7EE016425245414B20494E204C494E45202320001A8300002605C3
S123EB2086307EFECD183C3736CC271037365F37183018EC032A0D4353C3000118ED03869D
S123EB402DBDFECD18EC03CDEE010218ED038F1A8300002605186D00270B178B30C6011870
S123EB60E700BDFECD18EC01CE000A02CDEF0126D3C605183A18351838398601971CDE4B37
S123EB80EC001A930C230ABDEC69DE4BEC00DD0C398D56EC003CDE4B1AA30038266A7EEC33
S123EBA086373618301A930C23078601971C3233398D36EC00CDA30026F0E6028D0DDC0CBC
S123EBC0CDA30026E58D31DD0C20DF183C3C1838183A189C06240A18A600A7000818082049
S123EBE0F1DF06BDECC9183839DE041AA300230737E6023A3320F439DE049C062709EC00FE
S123EC0037E6023A3320F3393CDE4BE602383C8D03382040183C3CDE0A3A9C0E222BBDECDD
S123EC20A3DE063C3A3C183018EC00DD0618EC02CDA3042519CDEE02A60009CDEF02CDEECB
S123EC4000A70009CDEF0020E486097EEA983838381838393CDE4BE6023818DE4B18A600FC
S123EC601808A700085A26F539DE4BE602DE0A3A9C0E220DBDECA3DE063A8FDE06DD062027
S123EC80D386097EEA98E6023CDE4BE00238260220C22A08503CBDEC143820B83CBDEBCB63
S123ECA03820B1183C37DE0A18DE0A3ADC0ADF0A9308270FDD6C18A600A7000918098D3263
S123ECC02AF408DF0833183839183C3718DE0886FF50D3088FDC0A9308DF08DD6C270D18A2
S123ECE0A600A7000818088D092AF409DF0A33183839DC6C830001DD6C39FEFFC0DF08DF68
S123ED000ADF04DF068FF3FFC2830251DD10DD0EC30001DD49C30050DD4BC30080DD4DC3D7
S123ED20001EDD4FDD51C3003CDD53DD55C30050DD57DD59C30010DD5BDD5DC30010DD5F25
S123ED40DE046F00089C0E23F9FEFFC4A60A81552603BDF3AACC0000DD0CDD29BDF2867F57
S123ED60001B8601971C7F00377F0019DE0A08DF2D39FCFFC8DD6144444444B7103DDE6163
S123ED808693A7398603A724FCFFC0F3FFC28F35CE00C418CEEDFBC614867EA700081AEFF9
S123EDA00008085A26F5CE00F7CCED72ED01ED04ED07CE00A418CEFFA0C62018A600A700C5
S123EDC00818085A26F5CEEDF9DFE08603973C4F5FDD38DD3ADE618D238680A722CEEE3639
S123EDE0DFEFCEEE3CDFCBDFCE4F5FDD3DDD3FDD41FEFFCCAD007EE0038D013BDE61EC160F
S123EE00F3FFCAED168680A7237A003C26278602973CDC38C30001DD38DC3A27181A9338DA
S123EE20261318DE3D31317C0019DC29DD45DC2BDD477EF4453918DE3F26EC3BDE618630B2
S123EE40A72518DE4126E03BBDE3C3810D2604CC000039CEEE71BDE3A5250E08A60026FBD6
S123EE600808086D0026EF20E6EE01AD00CC0001394C49535400EEC552554E00F1594E458B
S123EE805700F2C7434F4E5400F2B2434C45415200F2DB455341564500F2F2454C4F414495
S123EEA000F3564C4C49535400F3904155544F535400F39B4E4F4155544F00F3A646524540
S123EEC04500F3D700BDE10EDC041A9306260139BDE05BBDE3C3BDE1BB2427BDE16CDD1288
S123EEE0BDE3C3812D270ADC12DD141A930C232139BDE3CCBDE16C1A930C2302DC0CDD148A
S123EF00200F810D270139DE04EC00DD12DC0CDD14DC121A9314230139DC12BDEBE9DF6A65
S123EF20DC14BDEBE9EC001A93142603E6023ADF14DC6A1A9314260139DE6AEC00080808AE
S123EF40DF6ABDEB1ADE6AA600817D270D4D2B05BDEFD820F0BDEF6420EBBDE110DE6A0858
S123EF60DF6A20CDDE6AA60084EFCEEF82A100270C0808086D0026F586087EEA98EE01AD19
S123EF80003984EF8FA2EFC4A8EFCBA4EFBD00DE6A08EC00D3080808DF6A8FA601BDFECDFD
S123EFA0A6022703BDFECD39DC6AC300068FE60008A600BDFECD085A26F7DF6A39DC6AC3F6
S123EFC0000320E9DC6AC3000120E2DE6A08EC000808DF6ABDEB1A39DE6AA60008DF6A81C5
S123EFE07F26037EF01C810A26037EF034810C26037EF02C8136260CDE6AA60008DF6ACE3F
S123F000F10B2003CEF04DA100270C0808086D0026F586087EEA98EE017EE11CDE6AE60028
S123F02008DF6A8620BDFECD5A26FA39CEE246BDE11C2006CEE2EABDE11CDE6A08A60081F9
S123F0400D260408DF6A39BDFECD0820F001E24E0DE2550EE25D0FE26812E27113E296142C
S123F060E29C15E2A638E96639E96B16E2AC03E2B504E2C305E2CA17E2D218E2E306E2F144
S123F08007E2F919E3021AE2DA3AE9C637E9C37CF1497BF1477AF14502F14408E30B79E546
S123F0A04A10F14B11F14D20E52321E52A22E53030E54431E54732E53833E53C34E54A35E7
S123F0C0E54040E51341E51650E51951E51C52E51F71E5512AE37072E54E7EF14F09E31317
S123F0E01BE31A1CE3211DE32A1EE3331FE33C78F15723E34524E34F25E27926E28327E3C2
S123F100570BE35F28E28C29E3670001E78802E79003E7B404E79805E79F06E7A607E7AD7B
S123F12008E7BB09E7C30AE31A0BE7DA0CE3210DE32A0EE3330FE33C10F15111E34F12E791
S123F140D213E35F003A003B002C00280029002000504F525445002300BDE10EBDF286865E
S123F16001971D18DE04189C0626013918EC00DD297D001B2712865BBDFECDDC29BDEB1AB7
S123F180865DBDFECDBDE110183C18E602183A18DF2B1838C603183A8D3018E60018088DB7
S123F1A0295A58CEF1DA3AEE00AD007A001A2603BDF25F8D1518A600817D260A1808189CD5
S123F1C00626A97EF4C8180820CE18A6002B0A817E270425041808180839F3ECF3ECF61487
S123F1E0F77DF7D4F5FFF604F5B9F70CF3E6FA4CF3E6F8F4F917F47900000000F436F55657
S123F200F4A5F951F814F4B8F4C8F4ECF531F97AF5D9F5F3F5F7F5FB000000000000FA1D71
S123F220FA2FFA61FA78FA96FAB8F608FA3ABDE10E18DE4B18EC00DD29C603183A8D8B181E
S123F240E60018088D845A58CEF1DA3AEE00AD00BDF1CA18A600817D260139180820DE863B
S123F2600A971A9D9E2601399DA1810327013918DF31BDE110CEEB09BDE11CDC29BDEB1AF8
S123F280BDE1107EE016BDF2DBDE53DF1FDE4FDF21DE57DF23DE5BDF25DE5FDF27DE0A08BB
S123F2A0DF2D7F001E860A971A7F001CCE0000DF3339BDE10E7D001C260618DE317EF1B3F2
S123F2C0862597187EEAD6FEFFC4A60A8155260786FFA70ABDFA14BDECFA39BDF289DE0823
S123F2E0A6002708080808BDE65220F4DE0A08DF2D39DC041A9306260139DC0A93041AB3A2
S123F300FFC6230586377EEA98FEFFC418CE0004C604D71A18EC00B3FFC0A700BDFA1408E9
S123F32017A700BDFA1408180818087A001A26E418EC00A700BDFA140817A700BDFA14FE55
S123F340FFC418DE0418A600A70BBDFA14081808189C0A23F039FEFFC418CE0004C604D733
S123F3601AEC00F3FFC018ED000808180818087A001A26EDEC0018ED00FEFFC418DE04A683
S123F3800B18A700081808189C0A23F318DF2D3986019737BDEEC57F0037398655FEFFC4F6
S123F3A0A70ABDFA143986FF20F3FEFFC4FCFFC4C3000BDD04FCFFC4E302C3000BDD06EC8C
S123F3C006A304F3FFC0DD0AFCFFC0DD08188FFCFFC4E3048F20A8BDE10EDC10932DBDEB9F
S123F3E01ABDE110393918E600183A3918A6008D0E37361808BDFB12BDFBB938ED003918AF
S123F400A6008502261D8510260F18EC01D308C3000337C603183A3339BDFB903C3005E3AE
S123F420003839851027E3BDFB903C37363005E30031313020E97D00192704DC06DD2BDE8B
S123F4402B9C062604DE042007EC00CDA30122F5EC00CDA30127102505861B7EEAEFE60296
S123F4603A9C0627F420E98F188F7D001927067F00197EF1BE313120F9183C7D0019270737
S123F48018DE0618092004C603183ABDF1CADE2709099C5D2405861C7EEAEFDF271AEF0053
S123F4A018387EF436DE279C5F2605861D7EEAEF1AEE000808DF2739CEF4D7BDE11CDC297C
S123F4C0BDEB1A18DF312007BDE1108601971CCC0000DD297EE0160A0D53544F50504544B3
S123F4E0204154204C494E4520232000DE2509099C592405861E7EEAEFDF251AEF00C601A6
S123F5003718DE2B260139183C189C0627BADE2BE6023ADF2BC603183ABDF1CA18A60018A2
S123F5203833811926015C811A26D55A26D27EF475DE259C5B2605861F7EEAEF183C1AEEF3
S123F54000BDFB12BDFBB9260A1838DE250808DF252002313139BDFB12BDF1CA18A60036E2
S123F5601808BDF1CADE1FEC002A07260586207EEAEFEC008300012717ED00C603183ABD3A
S123F580F1CA18A600817D27E41808BDF1CA20E2BDFBB932811226037EF436183CC603180F
S123F5A03ABDF1CA18A600817D270B817A27071808BDF1CA20E77EF48B1808BDF1CABDFB92
S123F5C012BDF1CA1808BDF1CABDFB121808BDFBB98FBDFBB98FE70039C600DE613A3C1868
S123F5E008BDFB12BDFBB94D2705862E7EEAEF38E70039C60420E4C60320E0C60820DC8601
S123F600FF971B397F001B390F07847F06CF078A80060E39BDF85218A600817D2704817AF4
S123F6202607BDE1107F00373981A22616183CC60218EB01183A3808E600C0020808BDF87E
S123F640D020398136261E18A60181072605BDF6B9202981022605BDF6CE2020810B260535
S123F660BDF6E2201781122605BDF6DA200EBDFB12BDFBB9BDEB1A8620BDFECDBDF1CA1886
S123F680A600817C2708817B2628180820131808D61EC40750CB0827088620BDFECD5A2618
S123F6A0FABDF1CA18A600817D270A817A27067EF629BDE1107F0037398D432705862A7E5B
S123F6C0EAEFD11E23078620BDFECD20F5398D2E2704862B20E9177EFECD8D222708863222
S123F6E020DD8D1A8D0117368D0332200444444444840F8B30813923028B077EFECDC603C0
S123F700183ABDFB121808BDFBB94D3918A6008510260586217EEAEF18EC01D3088FEC03D8
S123F7202704862220EF3CC604183ABDFB12180838DC2DED03C30002DD2DBDFBB92A04867C
S123F7402720183CEE03ED00C300013805D32D1A932D23051A9310230586097EEAEFDD2D54
S123F760EE0308086F00089C2D26F9BDF1CA18A600817D27071808BDF1CA209039DC2383C0
S123F780000A1A9355240586237EEAEFDD23183CBDF3FF1838DE23ED00DC29ED08BDF3EC59
S123F7A0BDF1CA1808BDF1CABDFB12BDFBB9DE23ED04CC0001ED02BDF1CA18A600813A2734
S123F7C0041AEF06391808BDF1CABDFB12BDFBB9DE2320E1BDF3FFDE231AA30027058624C1
S123F7E07EEAEF183C1AEE0018EC00E30218ED006D022B111AA3042F1118388FC3000ADD2F
S123F80023BDF1CA391AA3042DEF18381AEE06EC08DD29398D3C18A60081A2261B183CC69D
S123F8200218EB01183A3808E600C0020808BDF8D01808BDF1CA2003BDE110CEF84FBDE1D3
S123F8401CBDE0BB8D3B25F0BDE1107F0037393F200018A60081782701391808BDF1CABDEA
S123F860FB12BDFBB92A0586307EEAEF1A83000722F5D737BDF1CA817D27051808BDF1CAC7
S123F88039BDE05B810D26020D398D17BDF1CA18A600817D270B817A27071808BDF1CA204C
S123F8A0E00C3981242608BDE3CCBDE6CF2003BDF8DD3736BDE05B812C2709810D27088634
S123F8C0157EEAEFBDE3CCBDF3FF8F3233ED00395D2709A60008BDFECD5A26F739BDE3C3AD
S123F8E0812D260CBDE3CCBDE6A14353C3000139BDE6A139DE3326048D1DDE33DF00BDF8DA
S123F900812505DE00DF3339183C18DE00180818088D3A183820DD183C18DE04183C18E6D1
S123F92002183A18DF331838C603183ABDF1CA18A600810C270D18DE33189C0626DE862650
S123F9407EEAEF1808180818DF33183839183C20E8BDFB12BDF1CA1808BDF1CABDFBB9278B
S123F960037EF436C603183ABDF1CA18A600813926071808BDF1CA20E8391808BDF1CABD72
S123F980FB1218081808BDFB12183C18DE1F18EC022B061A8300FF230586287EEAEF05C31B
S123F9A0B6008FA60081FF27028D1D08A60081FF27028D1418A6018D320918A6008D2C18F7
S123F9C038BDFBB9BDFBB939183C18DE61C61618E73BA70007360FC61718E73B8D36C61666
S123F9E018E73B3206186F3B183839183C18DE61C60218E73BA7003607360FC60318E73B6D
S123FA008D12C60218E73B3206186F3B32A10026DF1838393CCE0D020926FD3839BDF85229
S123FA20BDF3FF8FBDFEEA164FED007F0037391808BDFB12BDFBB9DD38390F8603973CDEAC
S123FA4061EC0EBDEE004F5FDD380E391808BDFB12BDFBB94D270586357EEAEFDE61E7275F
S123FA60398D4ABDFB12BDFBB9DD3ABDF1CA1808BDF1CA18DF3D20198D33BDFB12BDF1CAA1
S123FA801808BDF1CABDFBB92604DD3F200318DF3FC603183A398D15078510260586347EC5
S123FAA0EAEFDC45DD29DC47DD2B31313B7D0019270586337EEAEF398DF3BDFB12BDF1CAAD
S123FAC01808BDF1CABDFB12BDF1CA1808BDF1CA07360F18DF41BDFBB91A8300012305866F
S123FAE0367EEAEF86105D270148DE61A724BDFBB92608DE616F26DD4120101A8300042284
S123FB00DECB0358585858DE61E7263206C603183A398610BDFC1B18A600811026081808F6
S123FB208DF0180820F14D2A048D1220EABDFBC8BDFC0B2401391808BDFC1B20DA81842634
S123FB400E18EC01D3088FC603183AEC03202D81A4260DCDEE01C60418EB03183A8F201CCC
S123FB60819426138D2A183C3C05183018E3003818388FEC00200586087EEAEFDE1F090988
S123FB809C512407861797187EEAEFDF1FED003918EC01D3088FEE03260586187EEAEFC63C
S123FBA004183A3CBDFB12180838BDFBB91AA3002304861920E60808393CDE1FEC00080815
S123FBC0DF1F381A83000039813627013918A6014AC603183A1658CEFBE53AEE00AD0018D0
S123FBE00818A60039FE20FE9EFE45FDC8FE76FDD9FE9EFDEBFDF6FE05FE9EFEAEFEBDFE7B
S123FC00C1FEC5FEC9FEA3FE9EFEA781112708817A24020C3986118D020D39DE21099C4D2F
S123FC20260586177EEAEFDF21A700DE21A60081102719E601C4F084F0112210A601E600A5
S123FC40C1112609811026050808DF2139E70108DF218D0220D5817025078070CEFCA4208B
S123FC603C816025078060CEFCAA2031815025078050CEFCAC2026814025078040CEFCB2E0
S123FC80201B813025078030CEFCB62010812025078020CEFCC2200586087EEAEF16583A3D
S123FCA0EE006E00FD80FD81FD8AFDC7FD52FD00FD4CFCEAFCF3FD92FD9DFDA3FDA9FDAF19
S123FCC0FDB5FCDFFCD4FCC8BDFBB9DE1FA800E801ED0039BDFBB9DE1FAA00EA0120F2BD08
S123FCE0FBB9DE1FA400E40120E7BDFBB9DE1FE30020DEDE1FEC02A3000808ED00DF1F39AE
S123FD008D08BDFBB9DE1FED0039DE1FA600A80236EC002605861A7EEAEF2A03BDFD8A6D47
S123FD20022A09EC024353C30001ED02EC00EE028F023CDE1FED023233ED00324D2A0CBDFA
S123FD40FD8AEC024353C30001ED02398DBCBDFBB939183CDE1FA601E6033D37361830A63C
S123FD6001E6023D18EB0018E700A600E6033D18EB0018E70008083233ED00DF1F183839A0
S123FD8039DE1FEC004353ED00398DF5C30001ED00398D272C026C030808DF1F398D1C2FA5
S123FDA0F720F38D162EF120ED8D102DEB20E78D0A26E520E18D0427DF20DBDE1FEC026F1B
S123FDC0026F031AA3003939BDFB12DE1FEC002A054353C30001ED0039BDFB12DE1FEC0067
S123FDE027F4CC00016D002AED20E6BDFB12DE1FEE00AD00200ABDFB12DE1FEE00E6004F17
S123FE00DE1FED0039BDFB12DE1FEC001A8300FF230586287EEAEF05C3B6008FEC0020E046
S123FE20BDFB12BDF1CA1808BDF1CABDFB12DE1FEC02EE00032804862C20D98FDE1F0808CB
S123FE40ED00DF1F39BDFB12DE1FEC002B061A8300072304862D20E1DE61E7306D302AFCFE
S123FE604FE631EB328900EB338900EB3489000404DE1FED0039BDFB12DE1FEC00270C2BE7
S123FE8004DC352015DE61EC0EDD35DC35581BD6360505D335C33619DD3504ED003986292A
S123FEA07EEAEFDC38200FDE61E6274F2008C600DE613AE6004F180918097EFB7CC604204C
S123FEC0EFC60320EBC60820E7C60A20E37C001E373CCE00B4D637583AEE0026087F0037B3
S114FEE086317EEAEFAD00383339373CCE00A420E4C5
S123FF008D0D36B69800850227F932B7980139B69800850127F9B698013936B698008501D7
S123FF2032393CDE61A62E842027FAA62F383CDE6136A62E858027FA32A72F38393CDE6192
S123FF4036A62E85203238398D193CDE6186FFA70738867E979E97A1CCFF3DDD9FCCFF22DD
S123FF60DDA2393CDE618630A72B6F2C860CA72D861197438613974438398613B7980086FD
S11CFF8056B79800398DB6270E368D96914426068D90914326FA322095BC
S123FFA0FF220000000000000000000000000000FF2E0000000000000000000000000000EF
S113FFC080002000600020001000F424FF4840005E
S123FFD600C400C700CA00CD00D000D300D600D900DC00DF00E200E500E800EB00EE00F15F
S10DFFF600F400F700FA00FDED72BC
S903E00319
