:0300000002016A90
:100100002021212041204D2041205A2049204E20ED
:1001100047202121200021212041204D2041205A2B
:100120002049204E204720212120002041207669AF
:10013000727475616C204C4D3033324C2E2E2E2053
:10014000002064726976656E20627920612076698C
:10015000727475616C200020202038303531207099
:10016000726F636573736F722100743812021174B9
:100170000E1202117F029001001201DF9000C812DE
:10018000022C74011202119001161201DF9000C8B6
:1001900012022C7401120211DFDC9001001201DF47
:1001A00090019012022C74C012021190012B1201C6
:1001B000F59000C812022C74011202119001411234
:1001C00001F574C01202119001571201F5740F125B
:1001D00002119007D012022C740112021180907843
:1001E00001E493600FF212021AA3C082C083D0838D
:1001F000D08280ED227801E4936015F212021AA3F6
:10020000C082C08390006412022CD083D08280E729
:10021000227800F202021A7801F27902E320E7FA6A
:1002200022C0E012022CD0E01470F6226382FF6339
:1002300083FFA3758A9C758CFF758901D28C308DE4
:0D024000FDC28CC28DA3E582458370E722CC
:00000001FF
