:020000040000FA
:0C000000000075EF01F00000000000009F
:02002A000000D4
:04002C00929489849D
:100030002C6AF2EC00F0F2EC00F0F2EC00F0979C8D
:100040008E9CF2EC00F08E8CC7EC00F0A9EC00F076
:10005000B8EC00F02C9C2C9EE3EC00F0F2EC00F0ED
:100060003C0E286E47EC00F0F2EC00F00C0E286E0F
:1000700047EC00F0F2EC00F0010E286E47EC00F0C7
:10008000F2EC00F0060E286E47EC00F012002C9CFB
:100090002C9EE3EC00F0D4EC00F000000000000027
:1000A0002C8CE3EC00F000000000000000000000D9
:1000B00000000000000000002C9CE3EC00F01200A7
:1000C000FDEC00F0FDEC00F01200010E286E28D8C7
:1000D0001200800E286E24D81200C00E286E20D880
:1000E0001200EEDF2C9C2C8EE3EC00F0D4EC00F040
:1000F00000000000000000002C8CE3EC00F0000089
:10010000000000000000000000002C9CE3EC00F068
:100110002C9EE3EC00F02850AD6EACA2FED712008E
:100120002C9C2C9EE3EC00F0CBDFD4EC00F0000024
:100130000000000000002C8CE3EC00F00000000048
:1001400000000000000000002C9C2C9EE3EC00F05E
:1001500012008994400EC96ECEEC00F0000EC96EFC
:10016000CEEC00F0000EC96ECEEC00F089841200D7
:100170008994400EC96ECEEC00F0010EC96ECEEC33
:1001800000F0000EC96ECEEC00F089841200949A43
:100190009496220EC66EC78C9E9612009EA6CEEF37
:1001A00000F09E96C95012008994400EC96ECEECA4
:1001B00000F0130EC96ECEEC00F02850C96ECEECE4
:1001C00000F0898412008994400EC96ECEEC00F0D4
:1001D000120EC96ECEEC00F02C50C96ECEEC00F0C1
:1001E0008984120000000000000000002A2EF2EFB7
:1001F00000F02B2EF2EF00F012002A2EFDEF00F09F
:100200002A2E00EF01F02A2E03EF01F02A2E06EF2E
:1002100001F02A2E09EF01F02A2E0CEF01F02A2E10
:100220000FEF01F02A2E12EF01F02A2E15EF01F048
:10023000120019EF01F0202020566F6C746D657468
:100240006572202020202020202020202020202017
:10025000202020202020202054656D70657261745C
:100260007572652020202020202020436C6F636B56
:100270002020202020205242303D4E6F77205241D6
:10028000353D4E6578744D6963726F63686970209F
:1002900050494344454D20504943313820457870FA
:1002A0006C6F726572205242303D4D656E75205202
:1002B00041353D5365745242303D202B2B20524135
:1002C000353D202D2D3E202020524230203D20451E
:1002D000786974202020566F6C7473203D20202094
:1002E0002020202020202020202016EC00F00E0EC0
:1002F000C16EA40EAC6EFF0EAF6E900EAB6E93800F
:10030000928A500E006E6CEC03F0600E006E8DEC65
:1003100003F0CCEC03F080AA8BEF01F081A08EEF0C
:1003200001F0AEEC03F0AEEC03F0AEEC03F080AA0B
:10033000FED7000E006E6CEC03F0400E006E8DECEC
:1003400003F081A02BD080BAFCD7AEEC03F0AEEC6A
:1003500003F0AEEC03F080AAFED7200E006E6CEC2A
:1003600003F0400E006E8DEC03F081A099D080BAAE
:10037000FCD7AEEC03F0AEEC03F0AEEC03F081A0E2
:10038000FED7300E006E6CEC03F0400E006E8DEC6C
:1003900003F081A0FFD080BAFCD7BDD7CCEC03F02E
:1003A00081A0FED7C26AC2800E0EC16EBA0EC06EA8
:1003B000A00E006E6CEC03F0C282C2B2FED7C3CFB7
:1003C00024F0C4CF23F0310E266E256A93EC04F09E
:1003D0001FC017F020C016F0640E196EB0EC04F0C8
:1003E00016500D6E17500E6E61EC04F06DEC00F0BF
:1003F000115046EC04F00750286E71EC00F02E0E00
:10040000286E71EC00F0125046EC04F00750286E94
:1004100071EC00F0135046EC04F00750286E71ECBC
:1004200000F0560E286E71EC00F0200E286E71EC74
:1004300000F0200E286E71EC00F0200E286E71EC9A
:1004400000F0520E286E71EC00F0420E286E71EC36
:1004500000F0300E286E71EC00F03D0E286E71EC4D
:1004600000F0450E286E71EC00F0780E286E71ECED
:1004700000F0690E286E71EC00F0740E286E71ECBD
:1004800000F0200E286E71EC00F0200E286E71EC4A
:1004900000F00D0EAD6EACA2FED781A056D78CD762
:1004A000CCEC03F081A0FED7C280C2840D0EC16ED9
:1004B000BA0EC06EC282C2B2FED7C3CF24F0C4CF80
:1004C00023F0310E266E256A93EC04F01FC017F05E
:1004D00020C016F0A00E175ED8A016060F0E165EEE
:1004E000C30E196EB0EC04F0175046EC04F069EC42
:1004F00000F0540E286E71EC00F0650E286E71EC61
:1005000000F06D0E286E71EC00F0700E286E71EC2C
:1005100000F0200E286E71EC00F03D0E286E71EC9C
:1005200000F0200E286E71EC00F03D0E286E71EC8C
:1005300000F0200E286E71EC00F00950286E71EC6E
:1005400000F00850286E71EC00F00750286E71EC36
:1005500000F0430E286E71EC00F0200E286E71EC56
:1005600000F0200E286E71EC00F0200E286E71EC69
:1005700000F06DEC00F0900E006E8DEC03F00000CA
:10058000AEEC03F081A001D095D72EEC03F049EC3E
:1005900003F0EFD6CCEC03F081A0FED70F0ECD6EAA
:1005A0000A6A0B6A0C6A9E90800ECF6ECE6A0A2A87
:1005B0000A503C08D8A40ED00B2A0A6A0B503C08FB
:1005C000D8A408D00C2A0B6A0C500D08D8A402D06D
:1005D000010E0C6E0C5046EC04F069EC00F0085073
:1005E000286E71EC00F00750286E71EC00F03A0EA6
:1005F000286E71EC00F00B5046EC04F00850286EA9
:1006000071EC00F00750286E71EC00F03A0E286E85
:1006100071EC00F00A5046EC04F00850286E71ECC2
:1006200000F00750286E71EC00F0200E286E71EC7F
:1006300000F0200E286E71EC00F0200E286E71EC98
:1006400000F0700E006E8DEC03F080AAC6D081A081
:1006500062D69EA025EF03F0A6D712009296C7ECB3
:1006600000F0898612008996030EC96ECEEC00F068
:10067000000EC96ECEEC00F01450C96ECEEC00F046
:10068000000EC96E9EA642EF03F09E96C950898661
:1006900012008996060EC96ECEEC00F08986F2EC47
:1006A00000F08996020EC96ECEEC00F0000EC96E05
:1006B000CEEC00F0000EC96ECEEC00F00950C96E11
:1006C000CEEC00F00850C96ECEEC00F00750C96EB9
:1006D000CEEC00F08986120069EC00F0100E016E7D
:1006E000000EF86E020EF76E360EF66E0050F6260D
:1006F000E86AF722F8220900F5CF28F071EC00F043
:10070000012EF9D70A0EAD6EACA284EF03F00D0EE8
:10071000AD6EACA289EF03F012006DEC00F0100E8C
:10072000016E000EF86E020EF76E360EF66E005079
:10073000F626E86AF722F8220900F5CF28F071ECD6
:1007400000F0012EF9D70A0EAD6EACA2A5EF03F0B2
:100750000D0EAD6EACA2AAEF03F01200C3EC03F0D5
:10076000C3EC03F0C3EC03F0C3EC03F0C3EC03F001
:10077000C3EC03F0C3EC03F0C3EC03F0C3EC03F0F1
:10078000C3EC03F01200FF0E026E830E036E022E06
:10079000FED7032EFCD71200E1EC03F0E1EC03F0EE
:1007A000E1EC03F0E1EC03F0E1EC03F0E1EC03F049
:1007B000E1EC03F0E1EC03F0E1EC03F0E1EC03F039
:1007C0001200FF0E026E036E050E046E022EFED79F
:1007D000032EFCD7042EFAD71200800E006E8DEC8B
:1007E00003F080AAFED769EC00F081A0FED7AEEC42
:1007F00003F081A001D006D00C2A0C500D08D8A41B
:1008000001D00C6A80AA10D00C5046EC04F00850BD
:10081000286E71EC00F00750286E71EC00F03A0E73
:10082000286E71EC00F0DDD780AAFED769EC00F0ED
:10083000140E286E90EC00F0140E286E90EC00F070
:10084000140E286E90EC00F081A0FED7AEEC03F001
:1008500081A001D006D00B2A0B503C08D8A401D0AF
:100860000B6A80AA10D00B5046EC04F00850286E9A
:1008700071EC00F00750286E71EC00F03A0E286E13
:1008800071EC00F0D1D780AAFED78DD6096A086A2C
:10089000076E640E075CD8A003D0076E092AF9D74B
:1008A0000A0E075CD8A003D0076E082AF9D70950B2
:1008B000300A096E0850300A086E0750300A076E79
:1008C000000C0D380F0BF00F106E1026E20F116E9A
:1008D000320F136E0D500F0B112611261326E90F40
:1008E000126E122612260E380F0B122613261236FF
:1008F0001336131E13360E500F0B13261036070E29
:100900000F6E0A0E12061326D8A0FCD71106122667
:10091000D8A0FCD710061126D8A0FCD70F061026A9
:06092000D8A0FCD7000C7A
:0A09260024502602F4CF20F0F3CF96
:100930001FF023502502F4CF22F0F3CF21F02450F2
:100940002502F3502026F4502122E86A2222235067
:100950002602F3502026F4502122E86A22221200B7
:100960001B6A080E1E6E16341B3619501B5ED8B05B
:1009700002D01B26D89016361E2EF5D71D6A080EFB
:100980001E6E17341B361D3619501B5E186A000E7A
:10099000D8A0183C1D5ED8B008D019501B26186A84
:1009A000000ED8B0183C1D26D89017361E2EE9D759
:0209B000120033
:020000040030CA
:0100010006F8
:0100020019E4
:010003001EDE
:010005008377
:010006008178
:00000001FF
