:020000000528D1
:08000800402803018600880076
:10001000A000960095008316FF3085000030850013
:10002000831205140510051405108316FF30850092
:100030008601880181309F008312C1309F0001300A
:1000400041201F151F19222883120814A00A3120ED
:1000500008104030A000000000000000A00B2B287A
:10006000212883161E08831286000817000000004E
:1000700008131E0886008817000000008813080077
:100080000900A200FF30A1000000A10B4428A20B30
:0400900042280800FA
:00000001FF
