:020000040000FA
:020000006E2A66
:04000A00003400348A
:02000E000308E5
:1000100083120317A0004F309C0008309D00E13090
:100020009E00900191019201930194019501960126
:100030009701980199019A019B0120308800933023
:1000400087006B2AF000030883120317A00000301A
:100050008A0070080F392F3E03188A0A82003F2851
:1000600047284F2857285F2867286F2877287F2838
:1000700087288F2897289F28A728AF28B7281217E6
:10008000921798171B171817151795136B2A121329
:10009000921798171B131813151395136B2A121721
:1000A000921798131B171817151395176B2A121709
:1000B000921798171B171813151395176B2A1213FD
:1000C000921798171B131813151795176B2A1217E9
:1000D000921398171B171813151795176B2A1217D9
:1000E000921398171B171817151795176B2A1217C5
:1000F000921798171B131813151395136B2A1217C1
:10010000921798171B171817151795176B2A1217A0
:10011000921798171B171813151795176B2A121794
:10012000921798171B131817151795176B2A121388
:10013000921398171B171817151795176B2A121774
:10014000921398131B171817151795136B2A121370
:10015000921798171B171817151395176B2A121754
:10016000921398131B171817151795176B2A121748
:10017000921398131B131817151795176B2AF00075
:10018000030883120317A00000308A0070080F399B
:10019000CC3E03188A0A8200DC28E428EC28F428E4
:1001A000FC2804290C2914291C2924292C29342948
:1001B0003C2944294C2954291017921698161917CE
:1001C0001617131795126B2A1013921698161913F7
:1001D0001613131395126B2A1017921698121917EB
:1001E0001617131395166B2A1017921698161917CF
:1001F0001613131395166B2A1013921698161913CB
:100200001613131795166B2A1017921298161917B2
:100210001613131795166B2A1017921298161917A2
:100220001617131795166B2A10179216981619138E
:100230001613131395126B2A101792169816191786
:100240001617131795166B2A10179216981619176A
:100250001613131795166B2A101792169816191362
:100260001617131795166B2A101392129816191752
:100270001617131795166B2A101792129812191742
:100280001617131795126B2A101392169816191732
:100290001617131395166B2A101792129812191726
:1002A0001617131795166B2A101792129812191316
:1002B0001617131795166B2AF000030883120317FD
:1002C000A00001308A0070080F39693E03188A0ABD
:1002D000820079298129892991299929A129A92986
:1002E000B129B929C129C929D129D929E129E9295E
:1002F000F129901591159715991596159315941147
:100300006B2A9011911597159911961193119411CB
:100310006B2A9015911597119915961593119415AF
:100320006B2A90159115971599159611931194159F
:100330006B2A901191159715991196119315941593
:100340006B2A90159111971599159611931594157F
:100350006B2A90159111971599159615931594156B
:100360006B2A901591159715991196119311941167
:100370006B2A901591159715991596159315941547
:100380006B2A90159115971599159611931594153B
:100390006B2A90159115971599119615931594152B
:1003A0006B2A90119111971599159615931594151F
:1003B0006B2A901591119711991596159315941113
:1003C0006B2A9011911597159915961593119415FF
:1003D0006B2A9015911197119915961593159415EF
:1003E0006B2A9015911197119911961593159415E3
:1003F0006B2AF000030883120317A0007008003A6C
:10040000031D1615031916116B2A0308831203170F
:10041000A0009B166B2A030883120317A0009A15ED
:100420006B2A030883120317A00019156B2A03080F
:1004300083120317A00010146B2A030883120317FA
:10044000A00013146B2A030883120317A0001614CC
:100450006B2A030883120317A00019146B2A0308E0
:1004600083120317A00090146B2A0308831203174A
:10047000A00093146B2A030883120317A00096149C
:100480006B2A030883120317A00099146B2A030830
:1004900083120317A00010156B2A03088312031799
:1004A000A00013156B2A030883120317A00012146F
:1004B0006B2A030883120317A00015146B2A030884
:1004C00083120317A00018146B2A03088312031762
:1004D000A0001B146B2A20088300080083018316E8
:1004E0008813081187160516051470308F00013027
:1004F0009100D0009F003F3092008730810007308C
:100500009C00831201309F008B019B010C309D00E9
:1005100012151730900088019F140720A1018E0149
:100520008F010B1D912A0B11493081009B22A822BB
:100530000318B722912A1E08A0009F148817200EC6
:1005400030398D389D00A00C200C3F399B000800ED
:10055000A10A0310A11EB62AA10110100E08A200C4
:100560000F08A30010148E018F010314080003105C
:10057000A20DA30DA20DA30DA20DA30D2208A7008D
:100580002308A600CE222A080F3922202A0E0F396E
:10059000BF2029080F395C210B22080003101030FE
:1005A000A400A801A901AA01A70DA60DAA0DA90DD5
:1005B000A80DA40BDC2A00342A308400E62229305E
:1005C0008400E62228308400E622D42A0330000783
:1005D000A500A519800030300007A500A51B8000EC
:0205E0000034E5
:02400E00E4309C
:00000001FF
