:10000000000001308A008F29A7007F39271B803C20
:100010000D20A71B003CA70008008A0182070034BE
:100020000334063409340C341034133416341934C0
:100030001C341F342234253428342B342E343134EC
:100040003334363439343C343F3441344434473427
:1000500049344C344E3451345334553458345A3472
:100060005C345E34603462346434663468346A34D8
:100070006B346D346F34703471347334743475345C
:100080007634783479347A347A347B347C347D3401
:100090007D347E347E347E347F347F347F347F34CD
:1000A000A0101221891009113E303D21B3018710A3
:1000B0003308B83842213D21B40187103408403854
:1000C00042213D2103018710422187143D21B40ABA
:1000D000341F5D28B30AB31D57288710A0101221C2
:1000E0008A291221A500891000000911A0143F30AF
:1000F0003D21B830220442213D212508B3000630BD
:1001000055213308302133087F39A500403842217A
:100110003D218A291221AE00250830212B08A30099
:100120002C08A4002E08B30006305521FC303307FC
:1001300003178D0001300318013E03133407031722
:100140008F0003130630B3006021AB00B620031705
:100150008D0A03198F0A0313B30BA42889140915F8
:100160002308AB002408AC002E088A292B0887102E
:10017000422187143D21A50A803025020318A501DC
:10018000250830218710250842213D292015C9283E
:1001900020111221DD20B001A20A0314B00DA20B20
:1001A000CE283008201DD6283104D828FF3A310542
:1001B0008710422187143D218A29AE003021031087
:1001C000220CAF000310AF0C0310AF0C0730A205D8
:1001D000B8302F0442213D2140302E0442213D21E0
:1001E0002E08F228B20000214030320442213D2185
:1001F00000214030320442213D218714310808009B
:100200004221871407148316FF30880083120914D3
:1002100009290808B1000910831688018312071004
:10022000871008006400B500A0182D298316091056
:10023000871007108910091188018312A014091072
:1002400007108710A501B83042213D2140304221DE
:100250003D21C0303D213F303D2187103508080049
:10026000A60040302602031839298910000009151C
:1002700008008914000009110800091488004029A9
:100280000910080007148316880188038312A70148
:1002900009144A2909104C29881F5029A70F4829F9
:1002A00083168801831207100800B401A701A7155F
:1002B000B30C0318B407B40CB30CA70B59290800EE
:1002C000831603178C170C14652983120C088A29CE
:1002D000AA01A900FF30A907031CAA07031C8A2949
:1002E0000330A800DF3076216A29A801E83EA70084
:1002F000A809FC30031C7F29A70703187C29A7073E
:100300000000A80F7C2927188529A71C892900002F
:100310008929080083138312031300000800A00139
:10032000073083169F0083128A015020A2010230F9
:100330008A01712047308A018A2072308A018A201E
:1003400061308A018A2070308A018A2068308A01EF
:100350008A2069308A018A2063308A018A2020300D
:100360008A018A204C308A018A2043308A018A20FF
:1003700044308A018A2020308A018A2054308A0140
:100380008A2065308A018A2073308A018A2074307D
:100390008A018A20B601403036028A110A120318F7
:1003A000E22936088A010420B7003608A20037087F
:1003B0008A01C6200A308A016821B60A8A110A1207
:1003C000031DCB29B601403036028A110A120318E8
:1003D000FA2936088A010420B7003608A200370837
:1003E0008A01C8200A308A016821B60A8A110A12D5
:1003F000031DE3298A01CA29000000000000000053
:1004000000000000FF00FF00FF00FF00FF00FF00F2
:1004100007000700070000000000000000000000C7
:100420000000070007000700E000E000E000000017
:1004300000000000000000000000E000E000E0001C
:10044000FF00FF00FF0000000000000000000000AF
:100450000000FF00FF00FF00070007000700070083
:1004600007000700E000E000E000E000E000E0003E
:10047000E000E000E00007000700070007000700B9
:100480000700E000E000E000FF00FF00FF00E000E8
:10049000E000E000E000E000E000FF00FF00FF00FF
:1004A000070007000700FF00FF00FF00FF00FF003C
:1004B000FF000700070007005500AA005500AA002A
:1004C0005500AA00AA005500AA005500AA00550030
:1004D0000100010001000100010001008000800016
:1004E0008000800080008000FF000000000000000D
:1004F0000000000000000000000000000000FF00FD
:10050000FF000100010001000100010001000100E5
:10051000010001000100FF00FF008000800080005A
:100520008000800080008000800080008000FF004C
:10053000000000000600090009000600000000009D
:1005400000000000000000000000000000000000AB
:10055000000000000000000000000000000000009B
:10056000000000000000000000000000000000008B
:10057000000000000000000000000000000000007B
:1005800000000000000000004F000000000000001C
:1005900000000700000007000000000014007F00BA
:1005A00014007F001400000024002A007F002A00AD
:1005B0001200000023001300080064006200000025
:1005C00036004900550022005000000000000500E0
:1005D00003000000000000001C0022004100000099
:1005E0000000000000000000410022001C0000008C
:1005F000140008003E000800140000000800080075
:100600003E0008000800000000005000300000001C
:1006100000000000080008000800080008000000B2
:1006200000006000600000000000000020001000DA
:1006300008000400020000003E005100490045008F
:100640003E000000000042007F004000000000006B
:1006500042006100510049004600000021004100B5
:1006600045004B00310000001800140012007F000C
:10067000100000002700450045004500390000003B
:100680003C004A00490049003000000001007100B0
:100690000900050003000000360049004900490038
:1006A0003600000006004900490049003E000000F5
:1006B0000000360036000000000000000000560078
:1006C0003600000000000000080014002200410075
:1006D00000000000140014001400140014000000B6
:1006E0000000410022001400080000000200010088
:1006F0005100090006000000320049007900410065
:100700003E0000007E001100110011007E0000007C
:100710007F00490049004900360000003E004100CA
:1007200041004100220000007F0041004100220002
:100730001C0000007F004900490049004100000002
:100740007F00090009000900010000003E0041008F
:10075000490049007A0000007F00080008000800F6
:100760007F000000000041007F0041000000000009
:100770002000400041003F00010000007F00080011
:1007800014002200410000007F00400040004000B3
:10079000400000007F0002000C0002007F0000000B
:1007A0007F000400080010007F0000003E004100B0
:1007B000410041003E0000007F00090009000900DF
:1007C000060000003E004100510021005E000000D4
:1007D0007F0009001900290046000000460049007A
:1007E0004900490031000000010001007F000100C4
:1007F000010000003F004000400040003F000000BA
:100800001F002000400020001F0000003F004000AB
:10081000380040003F00000063001400080014008E
:1008200063000000070008007000080007000000D7
:100830006100510049004500430000007F00410075
:100840004100000000000000020004000800100049
:100850002000000000000000410041007F00000077
:1008600004000200010002000400000040004000FB
:1008700040004000400000000000010002000400B1
:1008800000000000200054005400540078000000D4
:100890007F00480044004400380000003800440055
:1008A0004400440020000000380044004400480098
:1008B0007F0000003800540054005400180000006D
:1008C00008007E0009000100020000000C00520038
:1008D000520052003E0000007F00080004000400A7
:1008E00078000000000044007D004000000000008F
:1008F00000002000400044003D0000007F00100088
:100900002800440000000000000041007F0040007B
:10091000000000007C0004001800040078000000C3
:100920007C00080004000400780000003800440047
:1009300044004400380000007C001400140014003F
:100940000800000008001400140018007C000000DB
:100950007C00080004000400080000004800540067
:10096000540054002000000004003F0044004000F8
:10097000200000003C004000400020007C000000FF
:100980001C002000400020001C0000003C00400033
:10099000300040003C000000440028001000280007
:1009A000440000000C005000500050003C000000CB
:1009B0004400640054004C0044000000080036006D
:1009C0004100000000000000000000007F00000067
:1009D0000000000000000000410036000800000098
:0C09E000000008000400080004000000F3
:02400E00323F3F
:00000001FF
